:020000040800F2
:10000000A00D0020C9010008CD400008A53500085A
:10001000C940000849040008E1420008000000004F
:10002000000000000000000000000000D5400008B3
:100030004D04000800000000D1400008D94000082D
:10004000E3010008E3010008E3010008E301000800
:10005000E3010008E3010008E3010008E3010008F0
:10006000E3010008E3010008E3010008E3010008E0
:10007000E3010008E3010008E3010008E3010008D0
:10008000E3010008E3010008E3010008E3010008C0
:10009000E3010008E3010008E3010008E3010008B0
:1000A000E3010008E3010008E3010008E3010008A0
:1000B000E3010008E1400008ED400008E30100080A
:1000C000E3010008B5350008A9350008E301000880
:1000D000E3010008E3010008E3010008E301000870
:1000E000E3010008E3010008E301000800F002F862
:1000F00000F05AF80AA090E8000C82448344AAF168
:100100000107DA4501D100F04FF8AFF2090EBAE865
:100110000F0013F0010F18BFFB1A43F0010318473B
:10012000CC5C0000EC5C00000A444FF0000C10F8BE
:10013000013B13F0070408BF10F8014B1D1108BF65
:1001400010F8015B641E05D010F8016B641E01F805
:10015000016BF9D113F0080F1EBF10F8014BAD1C55
:100160000C1B09D16D1E58BF01F801CBFAD505E073
:1001700014F8016B01F8016B6D1EF9D59142D6D3CD
:10018000704700000023002400250026103A28BFF5
:1001900078C1FBD8520728BF30C148BF0B607047F9
:1001A0001FB51FBD10B510BD00F0BCF81146FFF71C
:1001B000F7FF04F017F900F0DAF803B4FFF7F2FFE5
:1001C00003BC00F0DDF800000948804709480047FB
:1001D000FEE7FEE7FEE7FEE7FEE7FEE7FEE7FEE7F7
:1001E000FEE7FEE704480549054A064B7047000054
:1001F000DD400008ED000008A0070020A00D002051
:10020000A0090020A009002053EA020C00F0698038
:100210002DE9F04B4FF00006002B1FBFB3FA83F51A
:1002200003FA05F424FA05F65E4012BF1643B2FA4B
:1002300082F502FA05F4C5F120051EBF22FA05FC7D
:1002400044EA0C04203556EA044C4FEA144418BF23
:10025000641C4FF000084FF00009904271EB030C52
:1002600039D3002919BFB1FA81F701FA07F6B0FABC
:1002700080F700FA07F6C7F120071EBF20FA07FC37
:1002800046EA0C062037B6FBF4FCA7EB0507103F47
:1002900007F01F0BCBF120062CFA06F60CFA0BFB2D
:1002A00044BFB3460026202FA4BF5E464FF0000B8C
:1002B0005BEA060C08BF4FF0010B19EB0B0948EB8A
:1002C0000608ABFB027C06FB02CC0BFB03CCC01B7D
:1002D00071EB0C01C1E70B46024641464846BDE8BA
:1002E000F08B13B5084318BF4FF0FF300146AFF352
:1002F0000080BDE81C40704770477047704710B5DC
:1003000000F008F8006810BD10B5044600F002F8CF
:10031000046010BD00487047B003002000487047DB
:10032000B00300207546FFF7F9FFAE4605006946A9
:10033000534620F00700854618B020B5FFF752FF5E
:10034000BDE820404FF000064FF000074FF00008D6
:100350004FF0000BAC46ACE8C009ACE8C009ACE813
:10036000C009ACE8C00921F007018D46704710B5FF
:100370000446AFF300802046BDE81040FFF71DBFE4
:1003800001491820ABBEFEE72600020070470000BE
:10039000B0B582B004460020019021688A68D20777
:1003A0004FD1886840F00100886040F20800C2F236
:1003B000000000684DF68361C4F21B31A0FB01010F
:1003C000880C01900198A0B1019801380190019822
:1003D00078B1019801380190019850B10198013825
:1003E0000190019828B101980138019001980028E6
:1003F000EAD101F023F821688968C9071CD10546B4
:1004000003E000BF8068C0071AD101F017F8411B54
:1004100020680329F6D38168C907F3D1A06A40F0A8
:100420001000A062E06A40F00100E062002084F861
:100430002400012002B0B0BD002002B0B0BD00BF5A
:10044000002002B0B0BD0000FEE7000070470000D1
:1004500010B504460078F8B16088E8B1A07D01309D
:10046000C1B23F29A07523D9A1880020A075B1FA97
:1004700081F04009A080F0B12069A18A012200F03A
:10048000D7FF2278A37DA068A1899A421ED20022BC
:10049000BDE8104000F0CCBFA068A189002200F0A8
:1004A000C7FF2069A18A0022BDE8104000F0C0BF4C
:1004B000A0880028E0D1A068A189012200F0B8FF3F
:1004C0002278A37D2069A18A9A42E0D30122BDE867
:1004D000104000F0ADBF000070B542F20C060446BB
:1004E000C4F2020600F0AAFF3168C90718D13068CB
:1004F000800644BF202030603068C00607D43069D1
:10050000C00704D1306840075CBF002070BD306870
:10051000C00623D40020316849072BD434E000BF43
:10052000002C47D00546601C0ED13068C007DED0D5
:100530003068C0071CBF30685FEAC070D7D0306831
:10054000C007F2D1D3E700BF00F078FF401BA04204
:1005500030D83068C007F7D1C9E700BF40F2D0609B
:10056000C2F20000C16941F00201C161102031688E
:10057000490709D540F2D061C2F20001CA6940F0D2
:10058000040042F00102CA613169C90702D130603A
:10059000012070BD40F2D061C2F20001CA6942F090
:1005A0000402CA61316921F001013161306001202A
:1005B00070BD00BF032070BD10B581B00022009255
:1005C00090F82420012A03D10221084601B010BD71
:1005D0004B680122062B80F8242017D8D0F800C0E1
:1005E00003EB83035A1F1F23DCF834E003FA02F401
:1005F0000B682EEA040403FA02F22243CCF83420FA
:10060000092B03EB430219D936E000BFD0F800C034
:100610000C2B03EB83021DD8233A1F23DCF830E0B8
:1006200003FA02F40B682EEA040403FA02F22243EE
:10063000CCF83020092B03EB43021DD8DCF8103036
:10064000072489689440A34391401943CCF81010C3
:10065000002130E0413A1F23DCF82CE003FA02F4D9
:100660000B682EEA040403FA02F22243CCF82C2091
:10067000092B03EB4302E1D9DCF80CE01E3A072416
:10068000896894402EEA0404914023F0010221433A
:10069000102ACCF80C100DD142F20841C4F201012D
:1006A000A1F1080294450DD0816A41F020018162D8
:1006B000012100E00021002280F82420084601B03A
:1006C00010BD00BF0A68120230D40A68102B42F431
:1006D00000020A602CD140F20801C2F20001096850
:1006E0004DF68362C4F21B32A1FB0212910C01EBA6
:1006F0008101490000910099E1B10099013900910F
:100700000099C9B10099013900910099B1B10099DE
:1007100001390091009999B100990139009100992E
:1007200000294FF00001E8D1C5E700BF0021C2E772
:100730000021C0E70021BEE70021BCE70021BAE7A5
:100740000021B8E70068C06C70470000B0B5002811
:1007500000F0A8800446806A20B121688868C0073C
:100760000BD114E00020E06284F82400204600F061
:100770009BF821688868C00709D0886820F00100CC
:10078000886000F05BFE21688A68D20726D1A06AE3
:10079000C0063AD4A06A41F2021290430230A0622D
:1007A000E069D4E9013240EA030C531EB3FA83F343
:1007B0005D091346B2F5807F18BF2B02207D257B93
:1007C00001284CEA450030D135B3A56A45F0200533
:1007D000A562E56A45F00105E56226E0054602E00E
:1007E0008868C007D3D000F029FE401B2168032889
:1007F000F6D38868C007F3D0A06A40F01000A0626A
:10080000E06A40F00100E062A06AA06A40F01000D7
:10081000A0620120B0BD00BFD4F818C04EF600059C
:10082000CFF6FF7505EB4C352B434D68B2F5807F55
:1008300025F4694543EA05034B608B684FF2FD756B
:10084000CFF6E17503EA050343EA00038B6001D0AC
:10085000012A07D122690023CFF6F07303EB02527D
:1008600001E000BF0022CB6A23F470031A43CA627E
:10087000896840F6FE62CFF61F721140814207D1AF
:100880000020E062A16A012262F30101A162B0BD11
:10089000A06A40F0100020F00200A062E06A40F080
:1008A0000100E0620120B0BD80B586B0014640F68F
:1008B0000000C4F20100096800F5E05291424FF0D7
:1008C0000001CDE9041101D006B080BD41F218014C
:1008D000C4F202010A6842F400720A600A6802F473
:1008E00000720192019A0A6842F004020A600968E3
:1008F00001F00401019101997F21029103210391EB
:1009000002A900F081FC06B080BD0000F0B581B006
:1009100000270D460446009700F090FD21688A6884
:10092000D20543D406464868C00503D4C86A10F40B
:10093000700F45D040F20800C2F2000007680220A4
:1009400001F0FEFC216844F624130A69B7FBF0F0BD
:10095000C2F292431A4206D1CA6844F62413C0F286
:1009600092031A425ED00A6942F29243C1F24923CD
:100970001A4207D1CA6842F29243C0F249031A42AE
:1009800000F0C0800A6949F24923C0F224031A42E8
:100990004FF0FC0257D1CF681F4208BF5422009B82
:1009A00002FB00F7BB4253D3C3E000BFA06A40F094
:1009B0002000A06284F82470012001B0F0BD00BFC7
:1009C0000868800700F1B580681C00F0A880FDB9B8
:1009D0000868800772D50868800700F1AA80086857
:1009E00080076BD50868800700F1A380086880073E
:1009F00064D50868800700F19C80086880075DD591
:100A000008688007E4D594E00868800700F19180C9
:100A100000F014FD801B2168A842F5D90868800702
:100A2000F2D44BE00A6942F29243C1F249231A42DE
:100A30004FF0290207D1CB6842F29247C0F2490732
:100A40003B4208BF1422009B02FB00F7BB4270D25E
:100A5000681C4FD055BB0098B8422FD30098013086
:100A600000900098B84264D20098B84226D300980B
:100A7000013000900098B8425BD20098B8421DD374
:100A80000098013000900098B84252D20098B842C5
:100A900014D30098013000900098B842DBD348E0AE
:100AA0000098013000900098B84233D200F0C6FCA4
:100AB000801BA842F4D90098B842F1D2A06A40F055
:100AC0000400A062002084F82400032001B0F0BDDF
:100AD0000098013000900098B8422AD20098013066
:100AE00000900098B84224D20098013000900098FD
:100AF000B8421ED20098013000900098B842E7D367
:100B000017E000BF5422009B02FB00F7BB429FD3BB
:100B10000FE000BF21680CE00868800709D408686E
:100B2000800706D4086880075CBF08685FEA8070A9
:100B3000F2D56FF012000860A06A40F40070A06265
:100B4000886800F46020B0F5602F01D1207B18B1D7
:100B5000002001B0F0BD00BFA06A20F48070A06248
:100B6000A06AC004F4D4A06A40F00100A062002092
:100B700001B0F0BD10B5044690F82400012804BF70
:100B8000022010BD012084F824002046FFF700FC5D
:100B900020B1002184F8241010BD00BF42F2044CA3
:100BA0002068A16AC4F2010C40F2013291430CF5B5
:100BB0007F7201F580719042A16233D0A16A21F465
:100BC0008011A1624168490504D5A16A012363F33C
:100BD0000D31A162A16A0023C9044FF0000144BF96
:100BE000E16A21F00601E1626FF0020184F824302D
:100BF0000160816801F46021B1F5602F06D1904257
:100C00000AD1DCF8001011F4702F05D0816841F48E
:100C100080118160002010BD816841F4A0018160D5
:100C2000002010BDDCF8001011F4702FC6D0A16AAE
:100C300041F48011A162DCF800104905C5D4C9E770
:100C4000B0B5044690F82400012804BF0220B0BDCE
:100C50000121206884F824108168C90709D08168BF
:100C600021F00101816000F0E9FB21688968C90772
:100C70000ED1214651F8280F41F2011220EA02025A
:100C8000002042F001020A60002184F82410B0BD67
:100C9000054602E08068C007EBD000F0CFFB411BA7
:100CA00020680329F6D38168C907F3D0A06A2146DA
:100CB00040F01000A06251F82C2F0120E1E7000065
:100CC000B0B5C8B1044690F8200010B9204600F035
:100CD00071F82068016841F00101016000F0AEFB8D
:100CE000054600BF20684168C90707D100F0A6FB90
:100CF000401B0B28F6D312E00120B0BD016821F0A3
:100D00000201016000F09AFB054600BF20684168BF
:100D100089070DD500F092FB401B0B28F6D3606AC3
:100D2000052140F400306062012084F82010B0BD3D
:100D3000217E0268012922F0800208BF8032026011
:100D4000617E0268012922F0400208BF4032026041
:100D5000A17E0268012922F0200208BF2032026031
:100D6000E17E0268012922F0100218BF10320260F1
:100D7000217F0268012922F0080208BF08320260C0
:100D8000617F0268012922F0040208BF0432026078
:100D9000D4E901C2D4E9033561691A432A431143F6
:100DA000ACF101021143C16100200121606284F8AD
:100DB0002010B0BDB0B586B0006846F20042C4F263
:100DC000000200219042059102D006B0B0BD00BFE4
:100DD00041F21800C4F20200426840F6004442F0BA
:100DE000007242604268C4F2010402F00072019293
:100DF000019A026802AD42F008020260006800F049
:100E00000800019001984FF48070CDE9020104912F
:100E10002046294600F0F8F94FF4007002900220B5
:100E20000390032005902046294600F0EDF90420A8
:100E3000C4F20100016849F6FF72CFF6FF021140CB
:100E400041F0E06141F48041016006B0B0BD0000B6
:100E5000B0B5864602208EF80500DEF800008368F3
:100E600043F00103836042B1531E032B02F0030CD5
:100E700008D20022BCF1000F1AD1006801218EF8BF
:100E80000510B0BD22F00302A1F11003544200226C
:100E900053F8105F043A05605D68944205609D68F0
:100EA0000560DD680560F3D15242BCF1000FE4D06B
:100EB00051F82230BCF1010F0360DED001EB82015A
:100EC0004A68BCF1020F02601CBF896801600068BB
:100ED00001218EF80510B0BD002804BF0120704725
:100EE00010B50446407918B101206071002010BD92
:100EF00000202071204600F005F8012060710020DC
:100F000010BD000081B0006843F20001C4F202018C
:100F1000884201D001B0704741F21400C4F20200CF
:100F2000016841F040010160006800F0400000905D
:100F3000009801B07047000080B590F82110022998
:100F400024D10268116821F00E0111602F2113686D
:100F5000C4F202018A4240F20401C4F2020123F009
:100F60000103136016DD3023C4F202039A421DD040
:100F70004423C4F202039A421CD05823C4F2020351
:100F80009A421DD14FF4803322E000BF04218163D7
:100F9000012080BD0823C4F202039A420ED01C2314
:100FA000C4F202039A420BD1102311E04FF4807374
:100FB0000EE000BF4FF480530AE000BF012307E0BA
:100FC00001F1680C4FF08073624508BF4FF4801345
:100FD0000B60012180F82110426B002180F8201065
:100FE0000AB190470021084680BD000090F821001A
:100FF00070470000B0B5044600F020FA054640F204
:101000000000C2F200000078611C18BF044400BF59
:1010100000F014FA401BA042FAD3B0BD2DE9F04312
:1010200081B040F2D066C2F20006327E012A03D1BE
:10103000022001B0BDE8F083054601202C6830761F
:101040004CF250308846FFF747FA022C1CD100289A
:101050004ED1002042F21004F061C4F20204206874
:1010600040F004002060206840F0400020604CF216
:101070005030FFF731FA216821F00401216000218E
:10108000317601B0BDE8F08390BB4FF0FF30C8F877
:101090000000D5E9027007EB8020874228D242F297
:1010A0001004C4F202044FF0000900BFC6F81C90FF
:1010B000206840F0020020606760206840F0400037
:1010C00020604CF25030FFF707FA216821F002014E
:1010D000216098B9D5E9020107F5806700EB81200E
:1010E0008742E3D300200021317601B0BDE8F083D0
:1010F00001200021317601B0BDE8F083C8F800700E
:101100000021317601B0BDE8F083000040F2D060EC
:10111000C2F20000C069704742F21001C4F202013D
:10112000086840F0800200200A6070472DE9F04F07
:1011300081B040F2D069C2F20009924699F81820B5
:10114000012A03D1022001B0BDE8F08F80460120C2
:1011500089F818004CF250309B460E46FFF7BCF958
:10116000A0BB404642F21007B8F1020F18BF04209E
:10117000C4F20207B8F1010F08BF404645424FF0E4
:1011800000080024C4F12001C9F81C802AFA04F0E8
:101190000BFA01F13A680843B4F1200158BF2BFA69
:1011A00001F042F00101396026F8020B4CF2503098
:1011B000FFF792F93968013521F0010248F1000189
:1011C0003A6018B9002904F11004DBD0002189F835
:1011D000181001B0BDE8F08F42F20400C4F2020022
:1011E000C16809065CBF0020704740F22311C4F2B9
:1011F0006751016048F6AB11CCF6EF510160C06851
:10120000C0B2C009704700002DE9F04F82B00E68EF
:10121000002E00F0038141F20042C4F201020423D7
:1012200040F2004E904208BF03234FF6FF7CC4F209
:10123000010E009300240123C1F2100C4FF0000AAC
:101240004FF0000949E000BF012704F00C030F2212
:101250009A402BEA020207FA03F34FEA9A051A436F
:1012600046F82520D1F804B040F20C455FEACB22C5
:10127000DEF8082054BF22EA080242EA0802C4F25B
:101280000105CEF808202A685FEA8B2354BF22EAC2
:10129000080242EA08022A605FEA8B33DEF8042083
:1012A00054BF22EA080242EA08025FEACB33CEF8D2
:1012B0000420DEF800204FF0010354BF22EA0802A8
:1012C00042EA0802CEF800200E680AF1010A36FA56
:1012D0000AF204F1040400F0A18003FA0AF816EA05
:1012E000080FF1D04E68664512DC122E56D8DFE8A2
:1012F00006F0350B454955555555555555555555D8
:101300005555554D510000BFD1F80C9046E000BF37
:101310004FF6FF72C1F2210296420FDC0022C1F2A9
:10132000110296421AD00022C1F21202964215D042
:101330000022C1F22102964210D02FE00022C1F219
:10134000220296420AD00022C1F23102964205D012
:101350000022C1F23202964220D100BF8A684AB10F
:10136000012A14BFC0F81480C0F810804FF008099B
:1013700014E000BF4FF0040910E000BFCA6802F19A
:1013800008090BE04FF0000908E000BFCA6802F14D
:10139000040903E0CA6802F10C0900BF22460646B0
:1013A000BAF1080F24BF203A043637680F2595405C
:1013B00027EA050509FA02F22A433260CA79D20601
:1013C0007FF582AF41F21803C4F202031A68AEF54A
:1013D0007E7642F001021A601A6802F00102019260
:1013E000019A2AF0030256F802B040F60002C4F255
:1013F0000102904210D040F60042C4F20102904235
:101400003FF422AF41F20002C4F20102009F904279
:1014100008BF022719E700BF002716E702B0BDE8A2
:10142000F08F00008068084018BF0120704700005E
:10143000002A08BF090401617047000040F298705B
:10144000C2F200000068704770470000704700005B
:10145000F0B581B00446006800254769426894F8F9
:101460003E1002F48076FA0508D53EB16FF4807222
:1014700042610268012542F400420260BA0505D5C6
:10148000002E1EBF02356FF4007242617A0516D538
:10149000AEB1628D94F83D30D4F830C0202908BF39
:1014A000002A23D06FF48062402905F104054261CF
:1014B00001D0102903D1016841F4007101603805A1
:1014C00006D52EB1206808356FF40061416100E057
:1014D00055B1206C40EA05012046216401B0BDE809
:1014E000F04002F0FFB800BF01B0F0BD03F0F7011B
:1014F000212909D0282B08BFBCF1210F04D06FF49B
:10150000806141610435DAE794F83D10E26AB2F196
:10151000080318BF0123203A18BF0122134208BF55
:10152000282921D0212939D10021CFF6FF71E1628C
:1015300021212163202184F83D10002184F83E10F0
:10154000426822F4E06242606FF4806242610268A5
:1015500022F4806202604269120648BF016120469F
:1015600000F002FEABE700BF0021CFF6FF71E162A1
:10157000416821F4E06141606FF48061416101687C
:1015800021F48061016000202021206384F83D1057
:1015900084F83E00204600F0F1FB90E76FF4806194
:1015A00041618CE7F0B581B0076804467868E26A6B
:1015B00094F83E3094F83DE0402B01D0102B27D119
:1015C000BE697D69E90751D1B2F12A4F00F0BE82B0
:1015D000B2F52A0F00F0BA8200F400724FF0010C4D
:1015E00029078CEA522C45D5002A43D0606B616CE8
:1015F000C9B2396118B1806A002840F02481A06B1B
:10160000002800F0A382806A002840F01C819DE23F
:10161000216C00F4007300290CBFBE6900267D69AF
:10162000A90753D5002B51D0206C002818BFBE69E4
:1016300094F83D0000F02800282840F09380786856
:10164000002320F480607860012020EA96013006B3
:101650004FF0180058BF0C20225A204684F83C3026
:1016600001B0BDE8F040FFF7F1BE00BF810557D4DF
:101670004FF0010CA90759D5BCF1000F56D194F8D1
:101680003E30E06A226B94F83D10222940F0E2805F
:10169000216D002908BF402B00F0DC80216D00295E
:1016A00040F032812169B1F5404F40F02D8100209A
:1016B000009078690090B86900900098386840F40C
:1016C00080703860206D013093E200BFE90655D587
:1016D000002B53D094F83D50786820F4E060786097
:1016E0000020009078690090386840F00100386070
:1016F0000098386820F4806038607868000540F110
:10170000408105F0F7002646222840F0198156F85E
:10171000380F0168496826F80E1C36F80E1C17E1D0
:10172000E06AB0F52A0F5FD1012062E079687207A4
:1017300001F4006100F19880002940F007826906F9
:1017400005F0040140F1AE8110F4806000F0AA8140
:10175000002940F0A781204601B0BDE8F04002F02A
:10176000FBB800BF0020009079690091B969009131
:10177000009984F83C0001B0F0BD00BF0EF0F70105
:1017800000F48062212905F0040040F083802906DE
:1017900040F14881002A00F04581002840F0428154
:1017A00094F83D00618D002900F0D081616A11F844
:1017B000012B3A616162618D01396185618D00297A
:1017C00008BF292840F0C2817868282120F4806071
:1017D000786021202063204684F83D1001B0BDE8E8
:1017E000F04000F0C1BC00BFE06AB0F12A4F01D167
:1017F0000820E06294F83E0040280BD1206D616C17
:10180000002801F0FE0018BF40F00100386101B06F
:10181000F0BD00BF2069B0F5804F65D194F83D0060
:10182000616C212801F0FE0118BF01313961606B44
:1018300008B1806A38B9A06B002800F08781806AFF
:10184000002800F08381786840F40060786001B07F
:10185000F0BD00BF0020009078690090B86900904A
:10186000009801B0F0BD00BF002940F06F8129064B
:1018700005F0040140F1228110F4806000F01E8127
:10188000002940F01B81204601B0BDE8F04002F085
:1018900047B900BF690640F1D980002A00F0D68020
:1018A000002840F0D38094F83D00618D002900F0BD
:1018B0004D813969626A1170616A01316162618DBD
:1018C00001396185618D002908BF2A2840F03E81D9
:1018D0002068416821F48061416022202821206332
:1018E000204684F83D10D8E0206D002800F0C0802C
:1018F000206D012840F02A81606C062101EAD01099
:10190000F130386101B0F0BD618D61B1618D0129A7
:1019100040F0E480202818BF082840F0198138687A
:1019200020F4806038600020009078690090B869E9
:1019300000900098386840F40070386058E100BFAB
:1019400056F8340F0168496826F80A1C36F80A1C54
:1019500019B1216C41F004012164796821F400611E
:101960007960FFF743FB01280BD0306843F2C15187
:10197000C0F600014163FFF7DFFA10B13068416B38
:101980008847608D60B120684169490730D441695A
:1019900049063AD4608D18B1206C40F004002064F0
:1019A000206C28B1204601B0BDE8F04001F09ABE9D
:1019B0002A2D07D100202063282084F83D002046EE
:1019C00000F0D0FB94F83D00282859D10020CFF634
:1019D000FF70E06200212020216384F83D00204652
:1019E00084F83E1001B0BDE8F04000F0C7B900BF78
:1019F0000069616A0870616A206801316162618D05
:101A00000139618541694906C4D50069616A087078
:101A1000606A01306062608D01386085608D0028E9
:101A2000BAD1BDE7002818BF002B00F08F80608D71
:101A3000002800F08B80606A10F8011B3961606239
:101A4000608D0138608501B0F0BD00BF002818BF6F
:101A5000002B00F07B80608D002877D03869616AA8
:101A60000870606A01306062608D013860856DE0E9
:101A7000606C062101EAD010F030386101B0F0BD91
:101A8000206B222818BF222D60D100212020216345
:101A900084F83D00204684F83E1001B0BDE8F040D7
:101AA00000F060BBB1FA81F0400950EA0C004DD162
:101AB000204601B0BDE8F04001F0DABEB1FA81F095
:101AC000400950EA0C0041D1BEF1210F36D1204629
:101AD00001B0BDE8F04001F0E1BF00BF618D022917
:101AE00014D1102858D8012114228140C0F20102DB
:101AF000114251D0396841F4806139600021009170
:101B000079690091B9690091009954E0396841F40C
:101B1000806139607968090563D5421E1F2A5DD846
:101B20000121914048F28102C8F20002114255D0D1
:101B3000786840F48050786053E000BF402B05D1B6
:101B4000204601B0BDE8F04002F044B801B0F0BD5D
:101B500010F5803F0CD1386820F4806038607868D8
:101B600000057FF5E0AE386820F48060386038E02A
:101B7000122A02D101287FF4D2AE1028F3D8012115
:101B800001FA00F01421C0F201010842EBD03868DC
:101B900040F48060386024E0396841F400613960C5
:101BA0000021009179690091B96900910099396823
:101BB00021F4806139607968090519D5421E1F2A10
:101BC0001AD80121914048F28102C8F20002114264
:101BD00012D0786840F48050786009E010F5803FBA
:101BE000A6D00020009078690090B8690090009815
:101BF0000020206501B0F0BD10F5803FE9D0F7E787
:101C00007047000070B5B8B3044690F83D0028B99D
:101C1000002084F83C00204600F062FA242084F87A
:101C20003D002068016821F001010160016841F474
:101C300000410160016821F40041016000F05EFD97
:101C400048F28041C0F21E0140F60013D4F804E0CF
:101C500088424FF00001C0F23D0348F2A16C4FF002
:101C6000000238BF01219842C0F2010C38BF0122A6
:101C7000E64538BF0A460AB1012070BD4DF68361C2
:101C8000C4F21B31A0FB01122168950C4B684FF484
:101C9000967623F03F0343EA9243754344F6D356C6
:101CA0004B60C1F262060B6AA5FB0656B50923F02C
:101CB0003F03E64538BF950C6A1C1A430A62CA699D
:101CC00048F2A0664CF6FF73C0F20106B64522EA60
:101CD00003020BD801384FEA4E03B0FBF3F001309A
:101CE0006FF31F30042898BF04201EE0A36801385A
:101CF00063B119230EFB03F3B0FBF3F001306FF374
:101D00001F3078B100F5804008E000BF0EEB4E03B5
:101D1000B0FBF3F001306FF31F3028B100F5004045
:101D200003E000BF012000E001201043C861086803
:101D3000D4E9072320F0C0001043184308608868E6
:101D400048F2FF3204F10C0690434CCE1843104386
:101D5000A5698860C86820F0FF0030432843C86048
:101D6000086840F00100086000202021206484F809
:101D70003D10206384F83E0070BD000070470000F5
:101D8000704700007047000080B581B04FF0000C34
:101D9000CDF800C090F83DC0BCF1200F62D140F2F8
:101DA000080CC2F2000CDCF800C04BF2895E4FEA6E
:101DB000DC0CC1F2F84EACFB0ECE4FEA1E2C4FF0FD
:101DC000190E0CFB0EFCCDF800C0DDF800C0ACF124
:101DD000010CCDF800C0DDF800C0BCF1000F47D009
:101DE000D0F800E0DEF818C05FEA8C7C35D5DDF86D
:101DF00000C0ACF1010CCDF800C0DDF800C0BCF1B2
:101E0000000F35D0D0F800E0DEF818C05FEA8C7C17
:101E100023D5DDF800C0ACF1010CCDF800C0DDF831
:101E200000C0BCF1000F23D0D0F800E0DEF818C0ED
:101E30005FEA8C7C11D5DDF800C0ACF1010CCDF867
:101E400000C0DDF800C0BCF1000F11D0D0F800E0F8
:101E5000DEF818C05FEA8C7CB7D490F83CC0BCF1C7
:101E6000010F11D14FF0020C604601B080BD00BFE0
:101E700000222021026380F83D1080F83E2000F10E
:101E8000400E4FF0020C35E0DEF800C05FEACC7C7B
:101E900005D1DEF800C04CF0010CCEF800C0DEF831
:101EA00000C02CF4006CCEF800C04FF0220C80F87B
:101EB0003DC04FF0100C80F83EC04FF0000CC0F851
:101EC00040C042624385428D02850022CFF6FF72F8
:101ED000C262416480F83CC0DEF804004FF48071B7
:101EE00040F4E060CEF80400DEF8000040F48060CA
:101EF000CEF80000DEF800000843CEF8000060468F
:101F000001B080BD2DE9F04383B01E4617468946D7
:101F10000446FFF793FA94F83D10202920D1054696
:101F2000206800BF8169890716D5FFF787FA411B32
:101F300020681A29F6D381698907F3D5002020216A
:101F4000206384F83D1084F83E00216C41F02001AC
:101F5000216484F83C0003E094F83C10012903D18B
:101F6000022003B0BDE8F083012184F83C10016831
:101F7000C90703D1016841F001010160016840F225
:101F8000020821F400610160212184F83D10102134
:101F900084F83E100021216467626685618DC0F27D
:101FA00001082185A8F10211E162E16A0A9E11F59A
:101FB000803F18BF01291DD1016841F48071016083
:101FC00020464FF0011100223346009501F0C2FE79
:101FD00050B120680068C00544BF4FF40070206411
:101FE000012003B0BDE8F0832069B0F5804F07D130
:101FF000FE2015E00829DFD0216B1229DCD0DFE7B5
:10200000062000EAD9102168F030086108F10601C5
:10201000204632462B4601F087FF0028E0D1FF2002
:10202000216800EA090008612046414632462B46F5
:1020300001F07AFF0028D3D1002002902068416986
:10204000029180690290029806E000BF2046314666
:102050002A4601F01FFE18BB208D68B3204631468A
:102060002A4601F0D1FFD8B9606A2168024612F809
:10207000013B0B616262628D013A6285228D531EC3
:1020800023854F697F07E1D51B04DFD043780230F9
:102090000B616062608D01386085901E2085D5E7F8
:1020A000206C04289CD12068016841F40071016013
:1020B000012003B0BDE8F0832068016841F400719D
:1020C0000160202084F83D00002084F83E0084F860
:1020D0003C0003B0BDE8F08370470000704700008B
:1020E00010B586B045F600010068C4F20001002278
:1020F0008842049202D006B010BD00BF41F218041D
:10210000C4F20204206840F008002060206800F05B
:102110000800019001984FF4406002901220039053
:102120000320059001F5344002A9FFF76DF86068BF
:10213000002140F4800060606068002200F48000AC
:1021400001900198212000F0BFF8212000F0A8F8AC
:1021500022200021002200F0B7F8222000F0A0F891
:1021600006B010BD7047000070470000B0B538B32E
:1021700004460068D4E901124CF6CC43036045F2F2
:102180005553036041608260FFF758F92168CA68BF
:1021900092070FD0054602E0C86880070AD0FFF713
:1021A0004DF9401B21682828F6D3C8688007F3D072
:1021B0000320B0BD4AF6AA2008600020B0BD00BFD1
:1021C0000120B0BD01684AF6AA2200200A607047CB
:1021D00040F2000040F29871C2F20000C2F2000129
:1021E00000780A68104408607047000080B542F229
:1021F0000000C4F20200016841F0100101600320F8
:1022000000F08EF80F2000F005F800F027F800200D
:1022100080BD000070B540F20006C2F2000640F238
:1022200008013278C2F200014FF47A730968B3FBF7
:10223000F2F20446B1FBF2F1084600F061FC0F2C0B
:102240004FF0010508D838B94FF0FF302146002281
:10225000002500F039F87460284670BD82B041F264
:102260001800C4F202000168022241F0010101607D
:10227000016801F0010101910199416841F080512B
:102280004160406800F08050009000980420C4F243
:102290000100016862F31A61016002B0704700003A
:1022A000002848BF7047C1B200F01F00012202FAA7
:1022B00000F04EF20012CEF2000242EAD10121F00B
:1022C000030108607047000010B54EF60C5CCEF2BA
:1022D000000CDCF80030C3F3022E8EF00704042C4F
:1022E00028BF0424BEF103034FF0FF3E0EFA04F4AE
:1022F00038BF0023A14399400EFA03F39A431143D8
:1023000000F00F0200F160430901043A03F5644351
:102310006244002848BF02F10C03197010BD000090
:102320004EF60C51CEF200010A684FF6FF031A4038
:1023300060F30A2242F0806040F0FD700860704750
:1023400080B5012818D0022836D0102832D141F2A9
:102350000401C4F202010A6851F8040CC00129D535
:10236000C2F383402DA3185CD2033DD440F6001283
:10237000C0F23D02504343E041F20400C4F20200C7
:10238000C16940F202320A40B2F5817F04BF4FF4C6
:10239000004080BD01F44071B1F5407F1CD0B1F523
:1023A000007F07D1006A49F64041800701EAE070EA
:1023B00080BD00BF002080BD00F0B4F941F20401EF
:1023C000C4F2020109680222C1F3813102EB41012A
:1023D000B0FBF1F080BD00BF50F8040C4FF2244177
:1023E000800301EAE07080BD0A6810A3C2F3404296
:1023F0009A5C41F20023C0F27A03B3FBF2F250433D
:102400000968490248BF80BD4AF6AB214000CAF6C0
:10241000AA21A0FB0101480880BD00BF02030405FA
:10242000060708090A0B0C0D0E0F10100102000020
:102430002DE9F04182B00446007841F21C06C00745
:10244000C4F202064AD0306810F0805808D13068D3
:1024500040F080503060306800F08050019001986A
:1024600047F20007C4F200073868C00512D4386884
:1024700040F480703860FEF7E1FF05463868C0051B
:1024800008D4FEF7DBFF401B6428F7D9032002B015
:10249000BDE8F081706810F4407012D0616801F4FA
:1024A000407188420DD0706840F24042C4F242222E
:1024B000012320F4407113600023C0071360716092
:1024C0002AD17068616820F440700843B8F1000FA9
:1024D000706003D1306820F0805030602068810740
:1024E00007D556F8181CA26821F44041114346F85C
:1024F000181CC00604D4002002B0BDE8F08100BF63
:1025000056F8180CE16820F48000084346F8180CCF
:10251000002002B0BDE8F081FEF790FF054641F2D1
:10252000883700BF70688007CBD4FEF787FF401B59
:10253000B8424FF00300F5D9EBE700002DE9F04376
:1025400081B0002800F0858042F20008C4F2020841
:102550000446D8F800000D4600F0070088420CD26F
:10256000D8F8000020F007002843C8F80000D8F889
:10257000000000F00700A8426BD1206841F2040976
:102580008107C4F2020917D5410705D5D9F8001013
:1025900041F4E061C9F80010010705D5D9F8001031
:1025A00041F46051C9F80010D9F80010A26821F078
:1025B000F0011143C9F80010C00741D1D8F800005C
:1025C00000F00700A8420CD9D8F8000020F007005E
:1025D0002843C8F80000D8F8000000F00700A8421F
:1025E00037D12068410707D5D9F80010E26821F4F7
:1025F000E0611143C9F80010000708D5D9F80000C0
:10260000216920F4605040EAC100C9F80000D9F8FF
:10261000002002F00C00082841F20020C0F27A00ED
:1026200050D145F6DC53C2F38341C0F60003595C38
:10263000D2033BD440F60010C0F23D00484341E0D5
:10264000606802280AD001282AD159F8041C89039D
:1026500008D4012001B0BDE8F08300BF59F8041C84
:102660008901F6D5D9F8001021F003010843C9F813
:102670000000FEF7E3FE064641F28837D9F8000075
:10268000616800F00C00B0EB810F97D0FEF7D6FE2A
:10269000801BB842F2D9032001B0BDE8F08300BF2F
:1026A00059F8041C8907D4D5DCE700BFD9F800200D
:1026B00045F6DA53C2F34042C0F600039A5C484341
:1026C000B0FBF2F0D9F8001045F6C252C1F3031185
:1026D000C0F60002515C40F2080220FA01F140F21B
:1026E0000400C2F200000068C2F200021160FFF7AD
:1026F00091FD002001B0BDE8F083000040F2080029
:1027000041F20401C2F20000C4F20201006809684B
:1027100045F6D252C1F30221C0F60002515CC84016
:102720007047000040F2080041F20401C2F20000CC
:10273000C4F202010068096845F6D252C1F3C22111
:10274000C0F60002515CC840704700002DE9F0411E
:1027500082B0002868D00446007841F20006C00725
:10276000C4F2020625D0706800F00C0004281BD0CB
:10277000706800F00C00082802D17068C00313D400
:102780006068002800F06881B0F5A02F00F07C811F
:10279000B0F5803F00F07C81306820F480303060FC
:1027A000306820F4802076E13068800301D56068CD
:1027B000D0B32078800718D5706810F00C0F07D0C0
:1027C000706800F00C0008286ED17068C0036BD4EC
:1027D0003068800702D52069012825D130686169F9
:1027E00020F0F80040EAC1003060207800071FD4D4
:1027F0002078400732D4E56995B1706800F00C008C
:10280000082840F08F80012D0ED07068216A00F4F6
:1028100080328A4208D1616A00F47010884203D184
:10282000002002B0BDE8F081012002B0BDE8F081D7
:10283000A069002862D00020C4F242200121C0F823
:102840008014FEF7FBFD0546706A800700F18C805E
:10285000FEF7F4FD401B0228F6D92AE1F06910F0DA
:10286000805808D1F06940F08050F061F06900F0C4
:1028700080500090009847F20007C4F200073868C3
:10288000C00529D4386840F480703860FEF7D6FD62
:10289000054600BF3868C0051ED4FEF7CFFD401BBB
:1028A0006428F7D905E100BF2069002840F2000044
:1028B000C4F2422000F0828001210160FEF7BEFDDB
:1028C000054600BF306880073FF588AFFEF7B6FDCC
:1028D000401B0228F6D9ECE0E068002800F0808078
:1028E000052800F09780012800F09880306A20F0D9
:1028F00001003062306A20F0040092E00020C4F24F
:1029000042200021C0F88014FEF798FD054600BF64
:10291000706A80077FF56CAFFEF790FD401B0228C0
:10292000F6D9C6E00027C4F2422700203866FEF739
:1029300085FD022D05460BD13068800140F1BE8037
:10294000FEF77CFD401B02284FF00300F4D968E736
:10295000306880017FF564AFFEF770FD401B0228F0
:102960004FF00300F4D95CE740F20800C2F2000027
:10297000006844F6D351C1F26201A0FB0101480A8C
:10298000019000BF00BF0198411E002801913FF453
:102990002FAF00BF0198411E002801913FF428AFDE
:1029A00000BF0198411E002801913FF421AF00BFF4
:1029B0000198411E00280191E4D119E7002101602E
:1029C000FEF73CFD054600BF306880077FF50DAF80
:1029D000FEF734FD401B02284FF00300F4D920E736
:1029E000306A20F001003062306A20F0040030626A
:1029F000FEF724FD054641F2883700BF306A8007A4
:102A000020D5FEF71BFD401BB8424FF00300F5D95F
:102A100007E700BF306A40F004003062306A40F0DF
:102A200001003062FEF70AFD054641F2883700BF1B
:102A3000306A800706D4FEF701FD401BB842F7D983
:102A400037E000BFB8F1000F7FF4D5AEF06920F099
:102A50008050F061CFE600BF306820F480303060F5
:102A6000306820F480203060FEF7E8FC054600BFA7
:102A7000306880037FF59DAEFEF7E0FC401B6428C4
:102A80004FF00300F4D9CCE6306840F48020306089
:102A9000306840F480303060FEF7D0FC054600BF5F
:102AA000306880033FF585AEFEF7C8FC401B642804
:102AB000F6D9032002B0BDE8F08100BF206AB0F56E
:102AC000803F05D17168A26821F400311143716023
:102AD0007168626A21F47411114308437060012027
:102AE0003866FEF7ABFC0446306880013FF598AECF
:102AF000FEF7A4FC001B02284FF00300F4D990E677
:102B0000411E0020B0EB116F1CBF012070474EF238
:102B10001002CEF2000251604EF62351CEF20001B7
:102B2000F0230B7007219060116070477047000020
:102B30007047000010B590F83C20012A4FF00202C7
:102B400033D080F83D200268D2F804E0D2F808C003
:102B50000C682EF07003234340F2FF74C4F20004AB
:102B6000A24253600ADCB2F1804F13D040F200431E
:102B7000C4F200039A420DD011E000BF42F60043B8
:102B8000C4F201039A4205D040F60003C4F20003E8
:102B90009A4204D149682CF08003194391600121C5
:102BA000002280F83D1080F83C20104610BD000047
:102BB000002804BF0120704710B5044690F83D007E
:102BC00028B9002084F83C00204600F067F8022075
:102BD00084F83D00206840F2FF730268C4F20003ED
:102BE00042F6004C9842C4F2010C15DCB0F1804F63
:102BF0001AD040F20041C4F20001884214D0984239
:102C000018DCB0F1804F1DD040F20041C4F2000149
:102C1000884217D01AE000BF604505D040F6000199
:102C2000C4F200018842EAD1A16822F070020A438E
:102C30009842E6DD604505D040F60001C4F200018F
:102C4000884203D1216922F440720A43A36922F029
:102C50008001D4F804E0E268194360450160C26273
:102C6000C0F828E002D16169CCF83010012141613F
:102C7000002084F8461084F83E1084F83F1084F851
:102C8000401084F8411084F8421084F8431084F80E
:102C9000441084F8451084F83D1010BD10B582B082
:102CA000006840F60001C4F20001884214D040F2EE
:102CB0000041C4F20001884228D141F21C00C4F254
:102CC000020001681D2441F002010160006800F06B
:102CD0000200019001980DE041F21C00C4F20200D4
:102CE00001681E2441F004010160006800F0040046
:102CF00000900098204600210022FFF7E5FA2046C8
:102D000002B0BDE81040FFF7CBBA00BF02B010BD63
:102D100090F83D1001291CBF01207047022180F866
:102D20003D10006840F2FF72C168C4F20002904298
:102D300041F00101C16009DCB0F1804F12D040F2D6
:102D40000041C4F2000188420CD012E042F600417A
:102D5000C4F20101884205D040F60001C4F200012E
:102D6000884206D1816801F00701062904BF0020CE
:102D70007047016841F001010160002070470000C8
:102D800080B590F83C20012A4FF0020200F0C2808A
:102D900080F83D20D0F800C04FF67772DCF808309C
:102DA00023EA0202CCF808200B684F2B28DC1F2BEB
:102DB00044DD202B45D0302B43D0402B40F0AC805D
:102DC000D1F804E0C968DCF82030DCF8202022F0DB
:102DD0000102CCF82020DCF8182022F0F00242EAB0
:102DE000011123F00A0242EA0E02CCF81810CCF8C6
:102DF0002020DCF8081041F0470121F0300180E08C
:102E00006F2B27DDB3F5005F48D0B3F5805F7AD034
:102E1000702B40F08180D1E901E3C968DCF808201B
:102E200043EA0E0322F47F4243EA01211143CCF826
:102E30000810DCF8081041F0770162E00BB1102BAC
:102E40006AD1DCF8081021F07001194341F0070144
:102E500057E000BF502B35D0602B5DD1D1F804E096
:102E6000C968DCF82030DCF8202022F01002CCF811
:102E70002020DCF8182022F4704242EA013123F0CD
:102E8000A00242EA0E12CCF81810CCF82020DCF890
:102E9000081041F0670121F0100132E0D1E901E3AF
:102EA000C968DCF8082043EA0E0322F47F4243EAB3
:102EB00001211143CCF80810DCF8081041F48041DE
:102EC0001FE000BFD1F804E0C968DCF82030DCF86E
:102ED000202022F00102CCF82020DCF8182022F07B
:102EE000F00242EA011123F00A0242EA0E02CCF893
:102EF0001810CCF82020DCF8081041F0570121F020
:102F00002001CCF808100022012180F83D1000219A
:102F100080F83C10104680BD0122F5E770470000A4
:102F200010B5016804460869800744BFC8685FEAB5
:102F3000807039D40869400744BFC8685FEA4070B0
:102F40003ED40869000744BFC8685FEA007045D4F2
:102F50000869C00644BFC8685FEAC0604AD408690F
:102F6000C0071CBFC8685FEAC07051D1086900067D
:102F700044BFC8685FEA006052D40869400644BF95
:102F8000C8685FEA406053D40869800646BFC868D5
:102F90005FEA806010BD6FF0200220460A61BDE844
:102FA0001040FFF7C5BD00BF6FF0020008610120AF
:102FB00020778869800743D02046FFF7AFFF45E0C0
:102FC0006FF00400086102202077886910F4407FC8
:102FD00040D02046FFF7A2FF42E000BF6FF008009C
:102FE000086104202077C86980073DD02046FFF79C
:102FF00095FF3FE06FF01000086108202077C86956
:1030000010F4407F3AD02046FFF788FF3CE000BF35
:103010006FF001000861204600F03EF82168A5E746
:103020006FF0800008612046FFF780FD2168A4E76B
:103030006FF040000861204600F0FCF92168A3E72A
:10304000204600F025F8204600F024F821680020F2
:1030500020776FE7204600F01BF8204600F01AF8B2
:103060002168002020776CE7204600F011F8204608
:1030700000F010F821680020207769E7204600F072
:1030800007F8204600F006F821680020207766E760
:1030900070470000704700002DE9F04104460068C9
:1030A00040F20045C4F20005A84240F0A08140F281
:1030B0008446C2F2000696F8520044F2B071C0F2A3
:1030C000010196F83A2000FB01F3002818BF580CC4
:1030D00086F84C0040F2F060C2F2000002FB01F3FF
:1030E0008189002A18BF5A0C86F83420A1B1D0E992
:1030F0000023891A4FF0000171EB03020AD2C18943
:103100004289914280F08E810131C181818C29B93F
:1031100018E000BFC0F80E10818C99B1D0E90623E9
:10312000891A4FF0000171EB030209D2C18C428C65
:10313000914239BF0131C1840121018502E000BF04
:10314000C0F82610818F81B1D0E90C23891A4FF085
:10315000000171EB03020DD2C18F428F914239BF42
:103160000131C1870121A0F84010B0F8541031B9E5
:1031700019E000BFC0F83E10B0F8541099B1D0E982
:103180001223891A4FF0000171EB030210D2B0F83C
:103190005610B0F85220914239BF0131A0F85610B4
:1031A0000121A0F85810B0F86C1031B919E000BF37
:1031B000C0F85610B0F86C1099B1D0E91823891AEC
:1031C0004FF0000171EB030210D2B0F86E10B0F8AE
:1031D0006A20914239BF0131A0F86E100121A0F898
:1031E0007010B0F8841031B919E000BFC0F86E104B
:1031F000B0F8841099B1D0E91E23891A4FF000016C
:1032000071EB030210D2B0F88610B0F88220914220
:1032100039BF0131A0F886100121A0F88810B0F85C
:103220009C1031B91CE000BFC0F88610B0F89C10AB
:10323000B1B1D0E92423891A4FF0000171EB0302E8
:103240000CD2B0F89E10B0F89A20914239BF0131EB
:10325000A0F89E100121A0F8A01001E0C0F89E1077
:1032600040F21047C2F200073878B98E421C386B22
:103270004FF6FF783A70FEF7D5F818B10020F886BF
:10328000B8850BE0F98EF88D814239BF0131F9869E
:103290000121B985404504BF0020F886F86BB7F8D6
:1032A0004010FEF7BFF828B10020A7F84200388789
:1032B0000FE000BFB7F84210788F814239BF01316B
:1032C000A7F8421001213987404504BF0020A7F824
:1032D0004200B86CB7F84C10FEF7A4F830B10020EB
:1032E000A7F84E00A7F8440011E000BFB7F84E1051
:1032F000B7F84600814239BF0131A7F84E100121CD
:10330000A7F84410404504BF0020A7F84E00786D90
:10331000B7F85810FEF786F830B10020A7F85A0029
:10332000A7F8500011E000BFB7F85A10B7F85200E4
:10333000814239BF0131A7F85A100121A7F8501076
:10334000404504BF0020A7F85A00386EB7F8641053
:10335000FEF768F830B10020A7F86600A7F85C0017
:1033600011E000BFB7F86610B7F85E00814239BFC0
:103370000131A7F866100121A7F85C10404504BF91
:103380000020A7F86600F86EB7F87010FEF74AF84C
:1033900030B10020A7F87200A7F8680011E000BF64
:1033A000B7F87210B7F86A00814239BF0131A7F847
:1033B00072100121A7F86810404504BF0020A7F84B
:1033C000720070683189FEF72DF818B10020708105
:1033D00030800BE071897088814239BF0131718181
:1033E00001213180404504BF00207081206805F52F
:1033F0008061884218BFBDE8F08140F21040C2F2FF
:103400000000816840F284440131C2F2000481600E
:1034100004F14C00FDF71CF804F13400BDE8F04164
:10342000FDF716B801210182818C00297FF476AE68
:1034300088E6000070470000002804BF01207047A4
:1034400010B5044690F8410028B9002084F84000E7
:10345000204600F063F8242084F841002068D4E975
:103460000212C36823F40053C360036923F440537A
:103470001A430261D4E904231143C268194341F29B
:103480000C639A431143C1604169A26921F4407100
:10349000114343F60002C4F201029042416103D09D
:1034A000FFF72CF902E000BFFFF73CF96268192131
:1034B00048439100B0FBF1F048F21F51C5F2EB1107
:1034C000A0FB01235A094FF69C73C0F6FF7302FB61
:1034D0000300322303EB0010A0FB0101F02303EAF9
:1034E0005113206803EB0212C1F3431111448160B0
:1034F000016921F490410161416921F02A01416192
:10350000C16841F40051C16000202021606484F84A
:10351000411084F84210606310BD000070B586B0A1
:1035200040F60044C4F20104006804F5305100265E
:103530008842049602D006B070BD00BF41F2180068
:10354000C4F20200016802AD41F4804101600168EB
:1035500001F4804101910199016841F00801016085
:103560000068294600F00800019001984020029070
:1035700002200390032005902046FDF745FE8020A1
:10358000CDE90206204629460496FDF73DFE0420BB
:10359000C4F20100016841F0E06141F00401016002
:1035A00006B070BDFEE7000040F2EC50C2F2000031
:1035B000FDF74EBF40F2EC50C2F20000FDF7F2BF43
:1035C00010B581B000210091406A40F20801C2F2BA
:1035D000000190F83DC009684BF28952C908C1F258
:1035E000F842A1FB0212110A2322514300910099D3
:1035F00011B30099013900910168096889051FD547
:103600000099C9B1009901390091016809688905DB
:1036100016D5009981B100990139009101680968B6
:1036200089050DD5009939B10099013900910168DA
:1036300009688905DBD403E0016C41F020010164D5
:10364000446B4FF0000E002C1CBF0021A162816B67
:1036500000291CBF00228A620268002C136823F430
:1036600080631360A0F82AE018BFC4F834E0002992
:103670001CBF00234B63116821F00101116090F819
:103680003D1060290CD1202180F83D10002180F8E8
:103690003E10016401B0BDE81040FDF7D5BE00BF8B
:1036A0000CF02801282911D1116841F001011160A5
:1036B000116841F48061116000210163282180F8C4
:1036C0003D1001B0BDE81040FEF79ABA202180F805
:1036D0003D10002180F83E1001B0BDE81040FEF71B
:1036E0008FBA000010B5044690F83D1090F83E00E7
:1036F000B0F1100218BF0122403818BF0120024269
:1037000008BF222934D001F0280028283AD100200F
:103710002063282084F83D0020684168090542D5CF
:10372000416821F400614160606B90F8211001292B
:1037300058D1A06B43F2C151C0F600014163FDF7BF
:10374000FBFB002861D020684169490606D5006965
:10375000616A0870616A206801316162016821F064
:1037600001010160202084F83D00A06B4BE000BF08
:103770002068026822F4006202604268120505D5E2
:103780000CE000BF20684268120507D4602905D00C
:10379000202184F83D10002184F83E10002121638F
:1037A00041680905BCD494F83D10602950D120210E
:1037B00084F83D10002121644169490606D500695D
:1037C000616A0870616A206801316162016821F0F4
:1037D000010101602046FDF737FE206C000717D17C
:1037E0001BE000BF43F2C151C0F600014163FDF789
:1037F000A3FB50B12168606B0A6822F001020A60E5
:10380000202184F83D10416B8847206C000704D0CC
:103810002068416821F4E061416094F83D00216C2A
:10382000490758BF10BD282810D10020CFF6FF70DF
:10383000E06200212020216384F83D00204684F8C6
:103840003E10BDE81040FEF799BA00BF10BD00BFA2
:103850004169490605D50069616A0870606A0130EE
:1038600060622046FEF7CCF9206C0007D0D1D4E787
:10387000C16A428D042A07D10168426A4B6823F469
:1038800080634B60096911E0428D032A16D10268FA
:103890000229536823F48063536005D0042903D0C0
:1038A000116821F4806111601169426A1170416AE6
:1038B00001314162418D013941857047428D022AB3
:1038C00012D101390F2919D8DFE801F008121812B6
:1038D00018181818181818181818180801680A68FD
:1038E00022F480620EE000BF0168426ACAE700BFAE
:1038F00001680A6842F4806204E000BF01680A6857
:1039000042F400720A600969426A1170416A0268F1
:103910004B1C4362438D013B438512694A70416AE7
:10392000026801314162418D01394185516821F4BC
:1039300040715160202180F83D1090F83E20002118
:10394000402A80F83E1003D10163FEF7C5BB00BFDB
:1039500012210163FEF714BA81B090F83D102229BC
:1039600077D1418D042913D30168426A0969117026
:10397000416A01314162418D01394185418D0329FF
:1039800067D10068416821F48061416001B07047EF
:10399000C26A022A58D0012956D80021009140F26B
:1039A0000801C2F2000109684BF28952C908C1F24C
:1039B000F842A1FB0212110A01EB8101009100996A
:1039C000013900910099002946D001680A689205E2
:1039D0001AD50099013900910099E9B301680A6884
:1039E000920511D50099013900910099A1B30168A0
:1039F0000A68920508D5009901390091009959B3D8
:103A000001680A689205DAD40A6822F480620A60C2
:103A10004A6822F4E0624A600969426A1170416AA8
:103A200001314162418D01394185202180F83D10ED
:103A300090F83E200021402A80F83E1028D10163F2
:103A400001B0FEF749BB00BF0068416821F4806106
:103A5000416001B0704700BF016C41F0200101647A
:103A60000168426A4B6823F4E0634B600969117096
:103A7000416A01314162418D01394185202180F83F
:103A80003D10002180F83E1001B0FEF7B9B800BF2C
:103A90001221016301B0FEF773B90000C16A90F80A
:103AA0003D20212A18BF7047428D4AB1416A026801
:103AB00011F8013B13614162418D01394185704725
:103AC00011F5803F18BF082918D101684A6822F40F
:103AD000E0624A600A6842F400720A600021202213
:103AE000016380F83D2090F83E2080F83E10402A87
:103AF00008BFFEF7F3BAFEF745B900BF2029E4D0AE
:103B000001684A6822F4E0624A60112101630021E1
:103B100080F83E10202180F83D10FEF733B90000F8
:103B200090F83D1090F83EC0C26A038D002B08BF8C
:103B3000212919D0212905D0BCF1400F08BF222925
:103B400000D07047418D69B390F83E10402908BFFE
:103B500000F040B8416A026811F8013B136141620C
:103B6000418D01394185704712F5803F18BF082A01
:103B70001ED101684A6822F4E0624A600A6842F491
:103B800000720A6000212022016380F83D2090F835
:103B90003E2080F83E10402A08BFFEF79FBAFEF78D
:103BA000F1B800BF0068416821F48061416070474E
:103BB000202ADED001684A6822F4E0624A601121BE
:103BC0000163002180F83E10202180F83D10FEF7AF
:103BD000D9B8000090F83D10026D5AB1026D012A6B
:103BE00014D10168826CD2B20A61016D01310165A4
:103BF000704700BFC26C816C012A15D10268C9B23E
:103C00001161016D02310165704700BF026D022A2A
:103C100012D1222918D101680A6842F480720A6020
:103C2000016D0131016570470268C1F3072111611F
:103C3000016D01310165704700684169090644BFA3
:103C400000210161704700BF428D5AB1212909D17D
:103C5000416A026811F8013B13614162418D0139EB
:103C600041857047428D002A08BF2129EAD10168A9
:103C70004A6822F4E0624A600A6842F400720A600C
:103C800000212022016380F83D2080F83E10FEF7DD
:103C900025BA000070B50368044653F8140F4007B6
:103CA00011D40E46481C29D086BB00BF18684005B9
:103CB00027D4FDF7C3FB236853F8140F400739D509
:103CC00018684007F2D5002070BD00BF1868400793
:103CD000F9D41868400514D418684007F3D418685C
:103CE00040050ED418684007EDD41868400508D484
:103CF000186840074FF0000048BF70BD18684005C5
:103D0000E4D56FF480601860042014E0154603E0E9
:103D100053F8140F4007D6D418684005F1D4FDF7C6
:103D20008DFB401B2368B042F2D958694007EFD49D
:103D3000202000E0202000212022216384F83D2063
:103D400084F83E10226C10432064012084F83C105B
:103D500070BD00002DE9F041054600681E4614467E
:103D600001F47F0201338FB242D0DDF81880B2F542
:103D7000803F40F0878040693840C01BB0FA80F037
:103D80004009A04240F0C8804EB924E04069384064
:103D9000C01BB0FA80F04009A04240F0BD80FDF7A2
:103DA0004DFBA0EB08012868B142EFD941693940C9
:103DB000C91BB1FA81F14909A142E7D19BE000BFDB
:103DC00040693840C01BB0FA80F04009A0424FF073
:103DD000000040F0A680FDF731FB286841693940BA
:103DE000C91BB1FA81F14909A142E9D183E000BFC1
:103DF000B2F5803F24D100BF41693940C91BB1FAF7
:103E000081F14909A14240F0878041693940C91BCD
:103E1000B1FA81F14909A14240F07E8041693940FF
:103E2000C91BB1FA81F14909A14275D141693940F3
:103E3000C91BB1FA81F14909A142DDD06CE000BF94
:103E400081693940C91BB1FA81F14909A14263D1A5
:103E500081693940C91BB1FA81F14909A1425BD19D
:103E600081693940C91BB1FA81F14909A14253D195
:103E700081693940C91BB1FA81F14909A142DFD0FA
:103E80004AE000BF80693840C01BB0FA80F04009AA
:103E9000A04241D146B923E080693840C01BB0FA46
:103EA00080F04009A0423BD1FDF7C8FAA0EB080121
:103EB0002868B142F0D981693940C91BB1FA81F152
:103EC0004909A142E8D116E080693840C01BB0FA28
:103ED00080F04009A0424FF0000018BFBDE8F0811B
:103EE000FDF7ACFA286881693940C91BB1FA81F144
:103EF0004909A142E8D100202021286385F83D101E
:103F000085F83E00296C41F02001296485F83C00C9
:103F10000120BDE8F08100BF0020BDE8F08100BFB6
:103F20000020BDE8F0810000F0B581B004460068D3
:103F30001D4643698FB203EA0701B94202D100204E
:103F400001B0F0BD41691646013201F4806125D00F
:103F5000002940D1CEB100BFFDF770FA411B2068A7
:103F6000B14203D941693940B9424BD14169394025
:103F7000B942E4D041694905EED52CE041693940A8
:103F8000B942DCD04169490525D4FDF757FA2068CC
:103F900041693940B942F1D0202024E0D9B94169C2
:103FA0003940B942CBD04169490514D441693940FF
:103FB000B942C4D0416949050DD441693940B9427B
:103FC000BDD04169490506D441693940B942B6D0EE
:103FD00041694905E3D5016841F4007101606FF45E
:103FE00080614161042000212022216384F83D206A
:103FF00084F83E10226C1043206484F83C100120A9
:1040000001B0F0BD2020EEE770B50368044653F818
:10401000140F000611D40E46481C29D086BB00BFE1
:104020001868400527D4FDF709FA236853F8140FE0
:10403000000639D518680006F2D5002070BD00BF13
:1040400018680006F9D41868400514D418680006EA
:10405000F3D4186840050ED418680006EDD418682B
:10406000400508D4186800064FF0000048BF70BD36
:1040700018684005E4D56FF480601860042014E0EF
:10408000154603E053F8140F0006D6D4186840050F
:10409000F1D4FDF7D3F9401B2368B042F2D9586937
:1040A0000006EFD4202000E0202000212022216300
:1040B00084F83D2084F83E10226C104320640120D7
:1040C00084F83C1070BD0000FEE70000FEE7000031
:1040D0007047000070470000FEF77AB87047000094
:1040E00040F29450C2F20000FEF71ABF40F2406066
:1040F000C2F20000FEF714BFB0B540F2E841C2F2D0
:104100000001487D8A7D0C7A40EA42008B7A0A7968
:1041100040EA840091F806C040EAC3004B7CCC7CA6
:1041200040EA02100A7F40EA4C1043EA44038C7CC8
:1041300040EA821E087D43EA840343EAC000CB7D47
:104140000C7E40EA03104B7E40EA44108C7E40EA2D
:1041500083108A7F8D7B40EAC4100C788B78097BB2
:1041600042EA051240F2104C42EA811240F28441C8
:10417000C2F2000CC2F200018CF81220CA769CF840
:1041800015208CF811008876501E05288CF810E058
:104190008CF814408CF8133081F819E00C774B77C9
:1041A0008A7721D240F2605EC2F2000E02EB8202F8
:1041B0000EEB420313F8040C13F8085C13F8064CDA
:1041C00013F8023C81F821001EF81200CD7781F827
:1041D000204081F8223081F823009CF817104A1EF5
:1041E000182A1CD80AE000BF002081F82300C1F87B
:1041F0001F009CF817104A1E182A10D840F20C0E07
:10420000C2F2000E252002FB00E29CF8160092F894
:104210002030984203D392F82120904200D9B0BDBB
:1042200040F2605CC2F2000C3CF811202CF8110046
:10423000824208BFB0BD00226FF46773ACF8002063
:1042400007E000BF90F850044881B93302F105023D
:104250003ED00CEB42010EEB03004C8890F8BD53AE
:10426000AC4203D390F8BE53AC4202D990F8BC43A1
:104270004C808C8890F8E253AC4203D390F8E3531F
:10428000AC4202D990F8E1438C80CC8890F8075476
:10429000AC4203D390F80854AC4202D990F80644DB
:1042A000CC800C8990F82C54AC4203D390F82D5458
:1042B000AC4202D990F82B440C814C8990F85154AF
:1042C000AC42BFD390F85254AC42BBD8BDE700BF5C
:1042D00040F26050C2F20000BDE8B04000F080BE85
:1042E000FEE7000010B582B040F2DC544FF600014A
:1042F000C2F200040020C0F6010102222060C4E9DD
:1043000002120190FCF768FF01A92046FCF786FE27
:10431000002818BFFCF7FAFEFCF7FEFE02B010BD45
:10432000B0B582B04FF6FC7CC0F6010C0CF1020374
:104330000CF101050CF1030E0A46140441D0047877
:10434000FF2C0C4608BF541E83421BD0220437D0DA
:104350004278FF2A0A4608BF621E854212D0140422
:1043600034D08478FF2C0C4608BF541E844509D0F5
:10437000220431D0C2780430FF2A0A4608BF621EE8
:104380008645DAD14FF6000440F2DC55C0F6010450
:10439000C2F20005002002212860C5E90241019017
:1043A000FCF71AFF01A92846FCF738FE002818BFC1
:1043B000FCF7ACFEFCF7B0FE204602B0B0BD00BF7B
:1043C0000130441A204602B0B0BD00BF0230441A8A
:1043D000204602B0B0BD00BF0330441A204602B0F0
:1043E000B0BD00009CB0FDF701FF0A201290012033
:1043F00010211690CDE917104FF40020002402255B
:104400001B9012A81594CDE913440B94CDE90944EF
:10441000CDE91954FEF79AF920B1EFF3108072B686
:10442000FEE700BF0F20CDE90C050CA80021CDE967
:104430000E441094FEF782F820B1EFF3108072B6AC
:10444000FEE700BF0224002608A808940A96FDF79C
:10445000EFFF28B1EFF3108072B600BFFEE700BF98
:1044600041F218001596C4F20200016840F6004BB4
:1044700041F0040101600168C4F2010B01F0040184
:104480000C910C990168002241F00801016000685C
:104490004FF4E04100F008000C900C9858464FF49F
:1044A000E047FCF7C5FFABF5806A50464FF460610A
:1044B00000224FF46068FCF7BBFF4FF48C5012AD44
:1044C000CDE91206504629461496FCF79DFE48F2A7
:1044D0000700CDE91206584629461496FCF794FECB
:1044E0001297012758462946CDE913761594FCF713
:1044F0008BFE50462946CDE91287CDE91464FCF7BE
:1045000083FE40F2E848C2F200080BF5C051404675
:1045100040F8481F4FF4602106730675C161C0E979
:1045200001660761FCF712F920B1EFF3108072B653
:10453000FEE700BF08F14805002412A92846CDE98E
:1045400012471494FCF738F820B1EFF3108072B6DC
:10455000FEE700BFABF52841404640F8201F102180
:10456000C0E90114C0E90344C0E905448483FCF7B1
:10457000A7FB28B1EFF3108072B600BFFEE700BFC3
:1045800040F26054C2F20004ABF5843220460021B0
:1045900040F8342F6422A0231591CDE91311CDE901
:1045A0000C11C0E90121C0E903318161FEF700FB74
:1045B00020B1EFF3108072B6FEE700BF4FF48050D9
:1045C00004F13406129012A93046FEF7D9FB28B147
:1045D000EFF3108072B600BFFEE700BF0CA93046B3
:1045E000FEF7A8FA20B1EFF3108072B6FEE700BF25
:1045F00040F28440ABF55C41C2F2000040F80C1F71
:10460000052140F24512C0E90112FDF7AFFD28B1C6
:10461000EFF3108072B600BFFEE700BF40F2886083
:104620000BF53051C2F2000000240C234FF4E132AC
:1046300080E81600C0E90344C0E90534C461FEF710
:10464000FBFE18B1EFF3108072B6FEE740F2406057
:10465000ABF58231C2F200000A231594CDE9134470
:10466000CDE90C44322280E81600C0E903348461AD
:10467000FEF79EFA20B1EFF3108072B6FEE700BF9E
:104680004FF48050129040F24060C2F2000012A934
:10469000FEF776FB20B1EFF3108072B6FEE700BFA5
:1046A00040F24060C2F200000CA9FEF743FA18B1D4
:1046B000EFF3108072B6FEE740F2EC50ABF53441F8
:1046C000C2F2000048F2A06200234FF48047C0F21B
:1046D000010280E80E00C0E90337C0E90533C0E9F4
:1046E0000733FDF78FFA18B1EFF3108072B6FEE7CB
:1046F00040F2104043F20001C2F20000C4F2020195
:1047000040F8181FFCF7E8FB20B1EFF3108072B6F9
:10471000FEE700BF4FF0FF30002440F28447C8E9B5
:104720000004C2F200074FF40050A7F840004FF415
:104730008040A7F848004FF40060A7F858004FF4F5
:10474000805040F210490121A7F86000C2F2000930
:104750003046A8F81C4088F81E40C8E90244C8E961
:104760000444C8F8174087F8344087F83A40C7F83F
:104770003610C7F83CB0C7F844B087F84C4087F80B
:104780005240C7F84E10C7F854A0C7F85CB0C9E94A
:104790000444FEF7BDFA40F24060C2F20000FEF7AA
:1047A000B7FA40F2F061C2F200014FF440300C82DF
:1047B000C1E90044C1E902040C85C1E90644C1E92C
:1047C0000804A1F84040C1E90C44C1E90E04C1F855
:1047D0005640C1E912440865A1F85440A1F8704060
:1047E000C1E91844C1E91A04A1F88840C1E91E448E
:1047F000C1E92004C1F89E40C1E92444C1F89800F1
:10480000A1F89C408021A9F8341001214FF48020A8
:10481000A9F840100421C9E90B0AA9F83A10C9E91E
:10482000110BC9E9140BA9F85810C9E9170B4FF47B
:104830000041C9E91A0AC7E9000A4FF48050A9F8F3
:1048400064104FF4807138814FF600000222A9F8FD
:104850007010C0F601003021A9F83840C9F83CB00A
:10486000A9F84C20FFF75CFD40F26056C2F200064A
:10487000C9F80400304600F05DFB30884FF6FF7148
:1048800040F20C064FF6FF798842C2F2000656D17C
:10489000FFF728FD0520FCF7ADFB40F26057F07FE5
:1048A000C2F20007788096F8B30096F84410788139
:1048B00096F8D800B98096F8FD10B88196F82201D4
:1048C000F98196F84711388296F86C01798296F84A
:1048D0009111B88296F80002F98296F82512B883F1
:1048E00096F84A02F98396F86F12388496F8940283
:1048F00096F8692096F88E30798496F8B912B884C3
:1049000096F8DE02FA803B8196F8B62196F8DB3104
:10491000F98496F80313388596F872033A837B83FB
:1049200096F8282396F84D33798596F897133886AC
:1049300038463C80BA85FB85798600F051FB40F211
:104940006050C2F20000A0F10A0101206FF467720A
:10495000B3188F8993F8BD43A74238BF002093F85E
:10496000BE43A742CF8993F8E24388BF0020A74205
:1049700093F8E34338BF0020A7420F8A93F8074417
:1049800088BF0020A74293F8084438BF0020A74200
:104990004F8A93F82C4488BF0020A74293F82D44F7
:1049A00038BF0020A7428F8A93F8514488BF002067
:1049B00093F85234A74238BF00209F4288BF00209E
:1049C000B93201F10A01C3D1000455D140F2605758
:1049D0000020C2F200073880F07F96F844107880FB
:1049E00096F8B300B980788196F8D80096F8FD1053
:1049F000B88196F82201F98196F84711388296F825
:104A00006C01798296F89111B88296F80002F982C9
:104A100096F82512B88396F84A02F98396F86F1231
:104A2000388496F8940296F8692096F88E30798446
:104A300096F8B912B88496F8DE02FA803B8196F8AF
:104A4000B62196F8DB31F98496F80313388596F889
:104A500072033A837B8396F8282396F84D33798541
:104A600096F8971338863846BA85FB85798600F024
:104A7000B7FA0520FCF7BEFA40F2844BC2F2000BF5
:104A800040F210440BF10C00C2F20004059004F156
:104A900020000690A9F17E0040F2605904900020A9
:104AA000C2F2000907900598FDF78CFB2146002013
:104AB00041F8200F01204860022088602846FBF75B
:104AC0007BFD18B14FF0FF361EE000BF2846FCF713
:104AD00051F828464FF0FF31FBF718FF10B10026C0
:104AE00004E000BF2846FBF72DFE06462846FCF7EB
:104AF000A7F80020069960622846FBF75DFD0028B4
:104B00004FF0FF3018BF064640F2F063C2F20003D8
:104B1000B0B2D3E900124043401842F10001DA89F3
:104B2000C3E90001501CD8812146012041F8200F23
:104B30004860022088602846FBF73EFD10B14FF028
:104B4000FF361DE02846FCF715F828464FF0FF31E8
:104B5000FBF7DCFE10B1002604E000BF2846FBF79F
:104B6000F1FD06462846FCF76BF8002006996062C6
:104B70002846FBF721FD00284FF0FF3018BF0646FE
:104B800040F2F063C2F20003B0B2D3E90612404330
:104B9000401842F10001DA8CC3E90601501CD884A8
:104BA0002146042041F8200F01204860022088603F
:104BB0002846FBF701FD18B14FF0FF361EE000BF9D
:104BC0002846FBF7D7FF28464FF0FF31FBF79EFE44
:104BD00010B1002604E000BF2846FBF7B3FD0646EF
:104BE0002846FCF72DF80020069960622846FBF75E
:104BF000E3FC00284FF0FF3018BF064640F2F06398
:104C0000C2F20003B0B2D3E918124043401842F197
:104C10000001C3E9180120784CF6CD42CCF6CC4215
:104C2000B3F86E10424349F699164FEA7202C1F684
:104C300099160131B242A3F86E103FD8FFF75CFA23
:104C4000238FB4F85000B9F8021050EA030218BFDD
:104C50000A46B4F844608BF8522056EA0004B9F8CA
:104C6000082018BF14468BF83A4040F21044C2F2B4
:104C70000004002B18BF0123A8F80830A38D002ED4
:104C800018BF0126002BA8F80A601CBF8BF8521031
:104C90008BF83A20002818BF0120B4F86810A8F853
:104CA0000600002918BF0121BBF8002088F81A105F
:104CB000002A18BF01222078A8F8042045F62941CF
:104CC000CCF28F21484347F2A301C0F63D21884230
:104CD0000BD840F2EC500BF11802C2F20000CE21CA
:104CE0000E230A260096FDF70DF9FCF7A7FB07999E
:104CF000401A06280AD2FCF7A1FBC01BB0F5967F2C
:104D00000DD820785128FFF4CEAEFFE0FCF796FBDB
:104D10000790FCF793FBC01BB0F5967FF1D940F2EA
:104D2000F066C2F20006F2897AB1D6E900010023EA
:104D3000FBF76AFA00F0C0FB00F077FA00F076FBB0
:104D400030810020F081C6E90000F28C7AB1D6E90A
:104D500006010023FBF758FA00F0AEFB00F065FAFD
:104D600000F064FB30840020F084C6E90600B6F849
:104D70006E209AB1D6E918010023FBF745FA00F03E
:104D80009BFB00F052FA00F051FB0021A6F86800EE
:104D9000A6F86E10C6E9181102E000BFB6F8680068
:104DA0003189B9F82C20338CB9F82E70B1FBF2F1AF
:104DB000B3FBF7F2A9F81210A0F54D61A9F8142081
:104DC00089B24FF2353291420499A8F802306CD37F
:104DD000C60900B200F059FB07460C464BF6C72047
:104DE0004FF2060144F2746B45F606794AF2D73267
:104DF000042EC8F6B850C3F65671CFF2946BCBF6BA
:104E0000F979C3F6705284BF4BF28D30C4F26D1045
:104E100084BF4FF28421CBF6DD6184BF4FF2946BE7
:104E2000C5F6067B84BF44F69849CBF6857988BFE2
:104E30000022042E40F60A160392C4F280063A4677
:104E4000234684BF42F20006C4F2530600F07AFB08
:104E5000CDE90110584649463A46234600F072FB18
:104E600081468B46DDE901103A46234640F2104464
:104E7000C2F2000400F066FB4A4640F260595B460D
:104E800040F2844BC2F20009C2F2000B00F026FA95
:104E9000024603980B46314600F020FA00F0ECF988
:104EA00000F08AF900F082FE0146B9F81C00A8F86B
:104EB000001009B2B9F81E3081424FF00002A8BFBD
:104EC0000122012BA8F81C200ED181420CDB504698
:104ED0004FF480610122FCF7ABFA0020ABF83600FA
:104EE000ABF84E000BE000BF0120ABF83600ABF88A
:104EF0004E0050464FF480610022FCF799FAFCF70F
:104F00009DFA074620785128FFF4CDAD40F2EC50D1
:104F10000BF12602C2F20000CE210E23FCF734FF73
:104F20009BF82700BBF8281060750020E1822070F4
:104F3000B9E5000040F21441C2F2000109684FF6E1
:104F40000002C0F60102914208BF704731F8302CD0
:104F5000028031F82E2C428031F82C2C828031F8DE
:104F60002A2CC28031F8282C028131F8262C42816B
:104F700031F8242C828131F8222CC28131F8202C86
:104F8000028231F81E2C428231F81C2C828231F8C8
:104F90001A2CC28231F8182C028331F8162C428365
:104FA00031F8142C828331F8122CC28331F8102C82
:104FB000028431F80E2C428431F80C2C828431F8B2
:104FC0000A2CC28431F8082C028531F8062C42855F
:104FD00031F8042C828531F8021CC185704700002D
:104FE000F0B599B040F214464FF6FC7CC2F20006D0
:104FF0000446C0F6010C306830270CF102020CF1B7
:1050000001030CF10305390447D00178FF294FF063
:10501000300108BF791E82421ED00F0438D0477875
:10502000FF2F4FF0300708BF4F1E834214D03904C2
:1050300030D08178FF294FF0300108BF791E8445B8
:105040000AD00F0428D0C7780430FF2F4FF0300764
:1050500008BF4F1E8542D6D14FF6000740F2DC55FF
:10506000C0F60107C2F20005002002212860C5E950
:1050700002710190FCF7B0F801A92846FBF7CEFFBA
:10508000002818BFFCF742F8FCF746F807E000BF1D
:10509000013002E0023000E00330A0F13007376059
:1050A000FCF79AF83168002534F815200120002318
:1050B000FCF73CF8002818BFFCF728F830680135E9
:1050C000811C182D3160EFD1FCF726F8208861880B
:1050D00040F22845CDE90101A088E188C2F200052F
:1050E000CDE903012089618901AECDE90501A089DF
:1050F000E1891822CDE90701208A618ACDE90901F9
:10510000A08AE18ACDE90B01208B618BCDE90D01ED
:10511000A08BE18BCDE90F01208C618CCDE91101D1
:10512000A08CE18CCDE91301208D618DCDE91501B5
:10513000A08DE18DCDE9170128463146FBF788FEA9
:10514000002020802046FFF7F5FE20886188182285
:10515000CDE90101A088E188CDE9030120896189B9
:10516000CDE90501A089E189CDE90701208A618A9D
:10517000CDE90901A08AE18ACDE90B01208B618B81
:10518000CDE90D01A08BE18BCDE90F01208C618C65
:10519000CDE91101A08CE18CCDE91301208D618D49
:1051A000CDE91501A08DE18DCDE9170128463146E5
:1051B000FBF74EFE19B0F0BD70B5054600F05CFD82
:1051C00004460146284600F087FD15F0004F4FF0D9
:1051D0007F410ED0B0F13F4F28BFB1EB400F0ED250
:1051E000B0F17C5F1DDDB1EB400F1AD313E0044634
:1051F00017E0B0F13F4F08D9B1EB400F05D34FF0A6
:105200007E51204600F068FDF1E7B0F17C5F08DBDD
:10521000B1EB400F05D34FF07E51204600F064FC07
:10522000E5E7284664F31E0070BD2DE9F04106460F
:105230000F4600F085FA041E0D4618BF01202843D2
:1052400020F00040C0F17F6000F1E040C00F0ED0C0
:10525000301C18BF0120384320F00040C0F17F60AF
:1052600000F1E040C00F04BF0120FBF74DF82046DD
:105270002946BDE8F081000021F0004201F0004322
:10528000A2F16052B2F5801F28BFD2F17F6C0BD91A
:105290005FEA001C43EAC20242EB507018BF70473D
:1052A00028BF20F001007047B2F5801FBCBF184630
:1052B00070474FEA410C1CF5001F02D2084600F06F
:1052C000D6BC70B500F0E8F900000089FFF7F6BF22
:1052D0004FF00040A0F580007047000010B591EA43
:1052E000030F48BF83F0004300F11883841A71EB69
:1052F000030C05D2121943EB0C03001B61EB0C01EC
:105300004FEA1154A4EB135CDFF81CE11EEA430FD3
:1053100018BF9EEA445F00F0748021EA045123EA3A
:105320000E0343F48013DCF1200E32D322FA0CFE7C
:1053300010EB0E0023FA0CFE41EB0E01CCF1200E17
:1053400003FA0EFE10EB0E00CCF1200E51F100011D
:10535000B1F5801F32D201EB045112FA0EF2BDE812
:10536000104058BF7047401C38BF5FEA420218BF68
:105370007047002814BF20F0010041F100014FEAFE
:10538000410313F5001F38BF7047A1F1C04100F081
:10539000D1B9012A43EB0302ACF1200CDCF11F0E62
:1053A00032BF4FF0000E23FA0CF310EB030041EB79
:1053B0000451B4EB115FD0D0A1EB045101F5801181
:1053C000490801EB04515FEA30000ED350F10000B0
:1053D00038BF12FA0EFE08D1BDE81040C9E7401CE4
:1053E00038BF5FEA4202CAD1C3E7BDE810404FEAC6
:1053F000410313F5001F38BF7047A1F1C04100F011
:1054000099B99EEA445F08D011EA5E0FBDE81040EA
:1054100004BF01F0004100207047BDE8104070B5A6
:1054200000F03AF964FBBE3E0000E0FF4FEA4103A2
:105430004FEA5353A3F58063D3F11E03C8BFD3F1E2
:10544000210C0CDD4FF0004242EAC12242EA5052E8
:1054500032FA03FC8CEAE17CACEBE1707047102B74
:10546000C4BF0020704703F5787CBCF1FF3F04D037
:105470006FF0004282EA2100704770B500F00CF92D
:105480004992248000207047F2E710F0004248BFA4
:105490004042B0FA80F310FA03F10AD0C3F11D03C1
:1054A00003F5806302EB03524FEA415002EBD12136
:1054B00070474FF000007047B1FA81F30B3B20D3E7
:1054C000994010D1B0FA80F310FA03F108BF704789
:1054D000C3F11D0303F580634FEAD1224FEA415027
:1054E00002EB03517047C3F1200C20FA0CFC41EA97
:1054F0000C019840C3F1320303F5806301EB0351C3
:105500007047C3F1320C0CF5806210B5C3F1000492
:10551000C4F1200E01FA0EFC21FA04F100FA0EF398
:10552000E04040EA0C00BDE8104001EB025138BFFA
:105530007047401C41F100015B0008BF20F00100F2
:105540007047000070B5DFF848C11CEA111E1EBF8D
:105550001CEA13159EEA0C0F95EA0C0F00F06F8001
:1055600081EA03044EEAD47EAE4421EA4C1123EAD8
:105570004C1341F4801143F48013AEF17F7EA1FB04
:10558000024CA0FB0365361955EB0C05A1FB034C3F
:105590004CF10003A0FB021C16EB0C06654153F115
:1055A0000003094218BF46F0010613F4007F0BD137
:1055B0004FEA03314FEA053041EA155140EA1650EF
:1055C00034036FF003020AE04FEAC3214FEAC5201B
:1055D00041EA555140EA5650F4026FF0020202EBE4
:1055E0002E4201EB025585EACE710AD05FEA440CE7
:1055F00018BF24F0004450F1000041F1000120EAFE
:10560000D47040F2FE7C624500D270BDA84214BF47
:105610004FF080444FF04044002E08BF0024BEF1FC
:10562000806FA8BFA1F1C041BDE8704080F28280C8
:1056300001F1C04101F000414FF0000070470CEA59
:1056400013159EEA0C0F18BF95EA0C0F06D081EADD
:10565000030E4FF000000EF0004170BD00F01CF88A
:105660008900013E00F007B800F009B84FEA430C8A
:105670005FEA5C5C08D081EA030100F05BB84FEAA6
:10568000410C5FEA5C5CF6D102494FF000007047C4
:105690000000FF070000F87F0EF1020E2EF0030E4F
:1056A0005EF8046B364205D4012A43EB030515F579
:1056B000001F12D8012841EB010C1CF5001F0CD86B
:1056C0000ED14FEAD17C0CEB4C0C0CF1020C15F511
:1056D000001F08BF4CEBD37C04E04FF0080C01E046
:1056E0004FEAD37C0CEB4C0526FA05F606F00706CC
:1056F000B6F1040C06D20EEB860CBDE870404CF0FF
:10570000010C6047DFE80CF0090B02024FF000418A
:10571000A1F500214FF0000070BD19461046012888
:1057200051EB010418BFD4F5001484BF002001F030
:10573000004170BD0808A0F500114FEA3101704723
:105740002DE9F04101F5801CBCF5001FC0F2C380BB
:105750004FEA115C21EA0C5141F480110CF1FD0C6F
:105760005FEA5C0C0CF5C07C01D340004941890222
:1057700041EA905187023BA48E0EA45D0A0C04FB03
:1057800004F602FB06F6C6F14046A4FB0662F60DDF
:1057900046EA422606FB06F4A4FB01235242C3F16B
:1057A000404338BF5B1EA6FB02420024E6FB0324F5
:1057B000D20B42EA4446A6FB0623A1FB02E2A3FB6E
:1057C00007E4A4184FF0000252F10002E3FB01428B
:1057D0006442C2F1404E38BFAEF1010EA6FB042375
:1057E0004FF00002E6FB0E32A2FB0346B6194FF063
:1057F000000454F10004E2FB0264A1FB06E6A4FBF2
:1058000007E816EB08064FF0000858F10008E4FB23
:1058100001687642C8F1405838BFA8F10108A2FBE0
:1058200006E4A3FB08E52D194FF0000454F1000431
:10583000E2FB0854A1FB05E6A7FB04E818EB060809
:105840004FF0000656F10006E1FB048618F1200532
:1058500056F10006A80940EA8660B109A8F11B08C4
:1058600008F03F08B8F10A0F1CD901EB0C51BDE854
:10587000F08100BFFCF5EEE8E2DDD8D3CFCBC7C3A3
:10588000C0BDB9B6B4B1AEACA9A7A5A3A19F9D9B5D
:105890009A9896959392908F8D8C8B898887868520
:1058A00084838281A0FB006800FB01F208EB4208C0
:1058B000B8EB872807D5341858EB0104D5D5401C20
:1058C00051F10001D1E7341A78EB0104CDD4401E28
:1058D00071F10001C9E75FEA4C0C5FEA9C5C0DD1F5
:1058E00005D301F000414FF00000BDE8F081BDE8B4
:1058F000F04170B5FFF7D0FE6DDBFFBEBDE8F041B3
:1059000001494FF0000070470000F87F10B591EAA0
:10591000030F48BF83F000433FF5E8AC841A71EBF6
:10592000030C07D28CF0004C121943EB0C03001B44
:1059300061EB0C014FEA1154A4EB135CDFF8A4E116
:105940001EEA430F18BF9EEA445F00F0B48021EACC
:10595000045123EA6E035242C3EB6E0338BF5B1E51
:10596000DCF1200E25D322FA0CFE10EB0E0043FAD8
:105970000CFE41EB0E01CCF1200E03FA0EFE10EBF3
:105980000E00CCF1200E51F1000129D401EB04519D
:1059900012FA0EF2BDE8104058BF7047401C1CBF01
:1059A000B2F1004F704700280CBF491C20F00100E5
:1059B000704712EB020E43EB030218BF4FF0010ECB
:1059C0004EEA4202ACF1200CDCF11E0E56D943FA2D
:1059D0000CFE10EB0E00CCF11E0E51F1FF31D5D5AF
:1059E0000EF1010E12FA0EFE404141EB010101EBF6
:1059F000445C5FEA5C5C10D901EB045110EBDE7093
:105A000038BFBEF1004FBDE8104018BF70470028F6
:105A10000CBF491C20F00100704734D24FEAD42C4F
:105A200024F4006411F500111BD0B1FA81F20B3A95
:105A3000A41AA41ED2F12003914030FA03F31943B3
:105A4000904001EBCC7101EB0451002CBDE81040FB
:105A5000A8BF704701F1C04101F000414FF00000C4
:105A60007047B0FA80F310FA03F102D1BDE810409C
:105A70007047E41A173C4805C90AE2E701EB0451F4
:105A8000BDE81040704749104FEA300001EB045167
:105A9000BDE8104002E04FF0000170474A0008BF27
:105AA0000042F8D0B2F5001F28BF704701F0004156
:105AB0004FF0000070479EEA445F07D011EA5E0F86
:105AC000BDE8104004BF002100207047BDE8104031
:105AD00070B5FFF7E1FD00BF40DFF63E104683F0F2
