:020000040800F2
:1000000038120020C9010008F5450008CD3A000863
:10001000F145000849040008654900080000000097
:100020000000000000000000000000000D47000874
:100030004D04000800000000F945000811470008C1
:10004000E3010008E3010008E3010008E301000800
:10005000E3010008E3010008E3010008E3010008F0
:10006000E3010008E3010008E3010008E3010008E0
:10007000E3010008E3010008E3010008E3010008D0
:10008000E3010008E3010008E3010008314700082C
:100090003D470008E3010008E3010008E301000810
:1000A000E3010008E3010008E3010008E3010008A0
:1000B000E30100081947000825470008E30100088C
:1000C000E3010008DD3A0008D13A0008E301000826
:1000D000E3010008E3010008E3010008E301000870
:1000E000E3010008E3010008E301000800F002F862
:1000F00000F05AF80AA090E8000C82448344AAF168
:100100000107DA4501D100F04FF8AFF2090EBAE865
:100110000F0013F0010F18BFFB1A43F0010318473B
:1001200094680000B46800000A444FF0000C10F816
:10013000013B13F0070408BF10F8014B1D1108BF65
:1001400010F8015B641E05D010F8016B641E01F805
:10015000016BF9D113F0080F1EBF10F8014BAD1C55
:100160000C1B09D16D1E58BF01F801CBFAD505E073
:1001700014F8016B01F8016B6D1EF9D59142D6D3CD
:10018000704700000023002400250026103A28BFF5
:1001900078C1FBD8520728BF30C148BF0B607047F9
:1001A0001FB51FBD10B510BD00F0BCF81146FFF71C
:1001B000F7FF04F059FC00F0DAF803B4FFF7F2FFA0
:1001C00003BC00F0DDF800000948804709480047FB
:1001D000FEE7FEE7FEE7FEE7FEE7FEE7FEE7FEE7F7
:1001E000FEE7FEE704480549054A064B7047000054
:1001F00015470008ED000008380C002038120020D8
:10020000380E0020380E002053EA020C00F06980FE
:100210002DE9F04B4FF00006002B1FBFB3FA83F51A
:1002200003FA05F424FA05F65E4012BF1643B2FA4B
:1002300082F502FA05F4C5F120051EBF22FA05FC7D
:1002400044EA0C04203556EA044C4FEA144418BF23
:10025000641C4FF000084FF00009904271EB030C52
:1002600039D3002919BFB1FA81F701FA07F6B0FABC
:1002700080F700FA07F6C7F120071EBF20FA07FC37
:1002800046EA0C062037B6FBF4FCA7EB0507103F47
:1002900007F01F0BCBF120062CFA06F60CFA0BFB2D
:1002A00044BFB3460026202FA4BF5E464FF0000B8C
:1002B0005BEA060C08BF4FF0010B19EB0B0948EB8A
:1002C0000608ABFB027C06FB02CC0BFB03CCC01B7D
:1002D00071EB0C01C1E70B46024641464846BDE8BA
:1002E000F08B13B5084318BF4FF0FF300146AFF352
:1002F0000080BDE81C40704770477047704710B5DC
:1003000000F008F8006810BD10B5044600F002F8CF
:10031000046010BD00487047E8070020004870479F
:10032000E80700207546FFF7F9FFAE46050069466D
:10033000534620F00700854618B020B5FFF752FF5E
:10034000BDE820404FF000064FF000074FF00008D6
:100350004FF0000BAC46ACE8C009ACE8C009ACE813
:10036000C009ACE8C00921F007018D46704710B5FF
:100370000446AFF300802046BDE81040FFF71DBFE4
:1003800001491820ABBEFEE72600020070470000BE
:10039000B0B582B004460020019021688A68D20777
:1003A0004FD1886840F00100886040F20800C2F236
:1003B000000000684DF68361C4F21B31A0FB01010F
:1003C000880C01900198A0B1019801380190019822
:1003D00078B1019801380190019850B10198013825
:1003E0000190019828B101980138019001980028E6
:1003F000EAD101F0A1FA21688968C9071CD1054634
:1004000003E000BF8068C0071AD101F095FA411BD4
:1004100020680329F6D38168C907F3D1A06A40F0A8
:100420001000A062E06A40F00100E062002084F861
:100430002400012002B0B0BD002002B0B0BD00BF5A
:10044000002002B0B0BD0000FEE7000070470000D1
:1004500010B504460078F8B16088E8B1A07D01309D
:10046000C1B23F29A07523D9A1880020A075B1FA97
:1004700081F04009A080F0B12069A18A012201F039
:1004800055FA2278A37DA068A1899A421ED2002243
:10049000BDE8104001F04ABAA068A189002201F02D
:1004A00045FA2069A18A0022BDE8104001F03EBA59
:1004B000A0880028E0D1A068A189012201F036FAC5
:1004C0002278A37D2069A18A9A42E0D30122BDE867
:1004D000104001F02BBA000070B542F20C06044641
:1004E000C4F2020601F028FA3168C90718D1306851
:1004F000800644BF202030603068C00607D43069D1
:10050000C00704D1306840075CBF002070BD306870
:10051000C00623D40020316849072BD434E000BF43
:10052000002C47D00546601C0ED13068C007DED0D5
:100530003068C0071CBF30685FEAC070D7D0306831
:10054000C007F2D1D3E700BF01F0F6F9401BA0428B
:1005500030D83068C007F7D1C9E700BF40F628306F
:10056000C2F20000C16941F00201C161102031688E
:10057000490709D540F62831C2F20001CA6940F0A6
:10058000040042F00102CA613169C90702D130603A
:10059000012070BD40F62831C2F20001CA6942F064
:1005A0000402CA61316921F001013161306001202A
:1005B00070BD00BF032070BD10B581B00022009255
:1005C00090F82420012A03D10221084601B010BD71
:1005D0004B680122062B80F8242017D8D0F800C0E1
:1005E00003EB83035A1F1F23DCF834E003FA02F401
:1005F0000B682EEA040403FA02F22243CCF83420FA
:10060000092B03EB430219D936E000BFD0F800C034
:100610000C2B03EB83021DD8233A1F23DCF830E0B8
:1006200003FA02F40B682EEA040403FA02F22243EE
:10063000CCF83020092B03EB43021DD8DCF8103036
:10064000072489689440A34391401943CCF81010C3
:10065000002130E0413A1F23DCF82CE003FA02F4D9
:100660000B682EEA040403FA02F22243CCF82C2091
:10067000092B03EB4302E1D9DCF80CE01E3A072416
:10068000896894402EEA0404914023F0010221433A
:10069000102ACCF80C100DD142F20841C4F201012D
:1006A000A1F1080294450DD0816A41F020018162D8
:1006B000012100E00021002280F82420084601B03A
:1006C00010BD00BF0A68120230D40A68102B42F431
:1006D00000020A602CD140F20801C2F20001096850
:1006E0004DF68362C4F21B32A1FB0212910C01EBA6
:1006F0008101490000910099E1B10099013900910F
:100700000099C9B10099013900910099B1B10099DE
:1007100001390091009999B100990139009100992E
:1007200000294FF00001E8D1C5E700BF0021C2E772
:100730000021C0E70021BEE70021BCE70021BAE7A5
:100740000021B8E70068C06C70470000B0B5002811
:1007500000F0A8800446806A20B121688868C0073C
:100760000BD114E00020E06284F82400204600F061
:100770009BF821688868C00709D0886820F00100CC
:10078000886001F0D9F821688A68D20726D1A06A6A
:10079000C0063AD4A06A41F2021290430230A0622D
:1007A000E069D4E9013240EA030C531EB3FA83F343
:1007B0005D091346B2F5807F18BF2B02207D257B93
:1007C00001284CEA450030D135B3A56A45F0200533
:1007D000A562E56A45F00105E56226E0054602E00E
:1007E0008868C007D3D001F0A7F8401B2168032810
:1007F000F6D38868C007F3D0A06A40F01000A0626A
:10080000E06A40F00100E062A06AA06A40F01000D7
:10081000A0620120B0BD00BFD4F818C04EF600059C
:10082000CFF6FF7505EB4C352B434D68B2F5807F55
:1008300025F4694543EA05034B608B684FF2FD756B
:10084000CFF6E17503EA050343EA00038B6001D0AC
:10085000012A07D122690023CFF6F07303EB02527D
:1008600001E000BF0022CB6A23F470031A43CA627E
:10087000896840F6FE62CFF61F721140814207D1AF
:100880000020E062A16A012262F30101A162B0BD11
:10089000A06A40F0100020F00200A062E06A40F080
:1008A0000100E0620120B0BD80B586B0014640F68F
:1008B0000000C4F20100096800F5E05291424FF0D7
:1008C0000001CDE9041101D006B080BD41F218014C
:1008D000C4F202010A6842F400720A600A6802F473
:1008E00000720192019A0A6842F004020A600968E3
:1008F00001F00401019101997F21029103210391EB
:1009000002A900F0FFFE06B080BD0000F0B581B086
:1009100000270D460446009701F00EF821688A680A
:10092000D20543D406464868C00503D4C86A10F40B
:10093000700F45D040F20800C2F2000007680220A4
:1009400001F07CFF216844F624130A69B7FBF0F03C
:10095000C2F292431A4206D1CA6844F62413C0F286
:1009600092031A425ED00A6942F29243C1F24923CD
:100970001A4207D1CA6842F29243C0F249031A42AE
:1009800000F0C0800A6949F24923C0F224031A42E8
:100990004FF0FC0257D1CF681F4208BF5422009B82
:1009A00002FB00F7BB4253D3C3E000BFA06A40F094
:1009B0002000A06284F82470012001B0F0BD00BFC7
:1009C0000868800700F1B580681C00F0A880FDB9B8
:1009D0000868800772D50868800700F1AA80086857
:1009E00080076BD50868800700F1A380086880073E
:1009F00064D50868800700F19C80086880075DD591
:100A000008688007E4D594E00868800700F19180C9
:100A100000F092FF801B2168A842F5D90868800782
:100A2000F2D44BE00A6942F29243C1F249231A42DE
:100A30004FF0290207D1CB6842F29247C0F2490732
:100A40003B4208BF1422009B02FB00F7BB4270D25E
:100A5000681C4FD055BB0098B8422FD30098013086
:100A600000900098B84264D20098B84226D300980B
:100A7000013000900098B8425BD20098B8421DD374
:100A80000098013000900098B84252D20098B842C5
:100A900014D30098013000900098B842DBD348E0AE
:100AA0000098013000900098B84233D200F044FF23
:100AB000801BA842F4D90098B842F1D2A06A40F055
:100AC0000400A062002084F82400032001B0F0BDDF
:100AD0000098013000900098B8422AD20098013066
:100AE00000900098B84224D20098013000900098FD
:100AF000B8421ED20098013000900098B842E7D367
:100B000017E000BF5422009B02FB00F7BB429FD3BB
:100B10000FE000BF21680CE00868800709D408686E
:100B2000800706D4086880075CBF08685FEA8070A9
:100B3000F2D56FF012000860A06A40F40070A06265
:100B4000886800F46020B0F5602F01D1207B18B1D7
:100B5000002001B0F0BD00BFA06A20F48070A06248
:100B6000A06AC004F4D4A06A40F00100A062002092
:100B700001B0F0BD10B5044690F82400012804BF70
:100B8000022010BD012084F824002046FFF700FC5D
:100B900020B1002184F8241010BD00BF42F2044CA3
:100BA0002068A16AC4F2010C40F2013291430CF5B5
:100BB0007F7201F580719042A16233D0A16A21F465
:100BC0008011A1624168490504D5A16A012363F33C
:100BD0000D31A162A16A0023C9044FF0000144BF96
:100BE000E16A21F00601E1626FF0020184F824302D
:100BF0000160816801F46021B1F5602F06D1904257
:100C00000AD1DCF8001011F4702F05D0816841F48E
:100C100080118160002010BD816841F4A0018160D5
:100C2000002010BDDCF8001011F4702FC6D0A16AAE
:100C300041F48011A162DCF800104905C5D4C9E770
:100C4000B0B5044690F82400012804BF0220B0BDCE
:100C50000121206884F824108168C90709D08168BF
:100C600021F00101816000F067FE21688968C907F1
:100C70000ED1214651F8280F41F2011220EA02025A
:100C8000002042F001020A60002184F82410B0BD67
:100C9000054602E08068C007EBD000F04DFE411B26
:100CA00020680329F6D38168C907F3D0A06A2146DA
:100CB00040F01000A06251F82C2F0120E1E7000065
:100CC00090F82020013A012A08D8006800F11402A7
:100CD0000020136819431160704700BF00F124021F
:100CE00001204FF480211368194311607047000000
:100CF00010B590F820E0D0F800C0AEF1010EBEF1C2
:100D0000010FDCF808E011D81EF0E05F18D0CEF338
:100D1000016E012000FA0EF018608B68D3B14868AC
:100D2000CC6844EAC000034318E000BF00F124018E
:100D300001204FF480220B681A430A6010BD00BFE7
:100D400000F1240101204FF400120B681A430A60DD
:100D500010BD00BF0868CB6843EA40530CEB0E108F
:100D6000C0F880310B69C0F88431097D012905D1B3
:100D700000F5C2710B6843F480730B605168C0F8D2
:100D80008C11126800F5C071C0F888210020012282
:100D90000B681A430A6010BDB0B5026890F82030A5
:100DA000013B012B28D8D2F80002012340F00100BA
:100DB000C2F80002D1F814E0CC690EF01F0003FA6B
:100DC00000F0D2F81C326FEA000C8343012CC2F809
:100DD0001C3217D06CBBD2F80C3203EA0C03C2F8F9
:100DE0000C32CB688C8844EA034302EBCE04C4F88F
:100DF00040320B4615E000BF416A41F48021416258
:100E00000120B0BDD2F80C320343C2F80C320B689B
:100E10008C8844EA034302EBCE04C4F8403201F16B
:100E20000C038C681B8843EA044302EBCE04C4F82D
:100E30004432D2F804328D6943EA0004D1F810E05C
:100E4000096A002D08BF03EA0C04C2F80442D2F874
:100E50001432BEF1000F43EA000408BF03EA0C0499
:100E60000129C2F8144204D1D2F81C120843C2F876
:100E70001C02D2F8000220F00100C2F8000200209B
:100E8000B0BD00007047000090F820100139012922
:100E900084BF002070470068816882688068C1F361
:100EA0008061C2F3C0621144C0F30070084470470F
:100EB0002DE9F04F81B0044600684669D0F80490EF
:100EC0008768D0F80CB0D0F810A0D0F81880F107DF
:100ED00004D1002530071DD424E000BFF90710D04D
:100EE0000121BA07816009D4780700F1AF80380783
:100EF00000F1B680204600F01BFA02E0204600F028
:100F000019FA0025F80500F18780F80300F1B18097
:100F1000300707D51BF0100004D0206845F4007599
:100F20001021C160700708D51BF0080005D02068AB
:100F30000821C160204600F0C3F9B00706D520683B
:100F4000C068800702D0204600F0BCF9700607D5C3
:100F50001AF0100004D0206845F48065102101616A
:100F6000B00608D51AF0080005D0206808210161F4
:100F7000204600F0A9F9F00606D520680069800730
:100F800002D0204600F0A2F9B00308D519F01000F5
:100F900005D0206810214160204600F099F9F00347
:100FA00008D519F0080005D02068082141602046C6
:100FB00000F0CAF9300440F19B805FEA497040F1CB
:100FC000948006F4807008EA102028435FEA887154
:100FD000014648BF41F00201B20558BF01465FEA31
:100FE00048700D4648BF45F00405700558BF0D46D2
:100FF000300540F17A8018F0700000F076801038EB
:10100000000905286CD8DFE800F003595D616569C7
:1010100045F0080564E000BF20684FF48071BA0510
:1010200081600BD4780515D438051DD4204600F016
:1010300083F9F8037FF56CAF1BE000BF204600F09A
:101040007DF9F8037FF564AF13E000BF4FF400654E
:1010500058E700BF05F50055F8037FF559AF08E0E4
:101060004FF480554EE700BF05F58045F8037FF546
:101070004FAF20684FF48031BA0381600AD47803FF
:1010800010D4380314D4204600F05AF930073FF545
:1010900041AF47E7204600F055F930073FF53AAF3A
:1010A00040E700BF05F5004530073FF533AF39E7AE
:1010B00005F5803530073FF52DAF33E745F01005D6
:1010C0000EE000BF45F020050AE000BF45F04005F6
:1010D00006E000BF45F0800502E000BF45F48075E2
:1010E0002068816921F070018161206804214160DC
:1010F00055B1606A40EA05012046616201B0BDE871
:10110000F04FFFF7BFBE00BF01B0BDE8F08F000099
:10111000B0B5C8B1044690F8200010B9204600F0E0
:1011200071F82068016841F00101016000F004FCE1
:10113000054600BF20684168C90707D100F0FCFBE5
:10114000401B0B28F6D312E00120B0BD016821F04E
:101150000201016000F0F0FB054600BF2068416815
:1011600089070DD500F0E8FB401B0B28F6D3606A19
:10117000052140F400306062012084F82010B0BDE9
:10118000217E0268012922F0800208BF80320260BD
:10119000617E0268012922F0400208BF40320260ED
:1011A000A17E0268012922F0200208BF20320260DD
:1011B000E17E0268012922F0100218BF103202609D
:1011C000217F0268012922F0080208BF083202606C
:1011D000617F0268012922F0040208BF0432026024
:1011E000D4E901C2D4E9033561691A432A431143A2
:1011F000ACF101021143C16100200121606284F859
:101200002010B0BDB0B586B0006846F20042C4F20E
:10121000000200219042059102D006B0B0BD00BF8F
:1012200041F21800C4F20200426840F6004442F065
:10123000007242604268C4F2010402F0007201923E
:10124000019A026802AD42F008020260006800F0F4
:101250000800019001984FF48070CDE902010491DB
:101260002046294600F04EFA4FF40070029002200A
:101270000390032005902046294600F043FA0420FD
:10128000C4F20100016849F6FF72CFF6FF02114077
:1012900041F0E06141F4804101601320002100220F
:1012A00001F090FA132001F079FA142000210022B5
:1012B00001F088FA142001F071FA06B0B0BD000008
:1012C0007047000070470000704700007047000042
:1012D00070470000B0B5044690F8200001281DD1E9
:1012E000022084F820002068016821F001010160DB
:1012F00000F022FB054600BF20684068C00713D0FD
:1013000000F01AFB401B0B28F6D3606A40F4003053
:101310006062052084F820000120B0BD606A40F4BE
:10132000002060620120B0BD00206062B0BD0000FE
:1013300070470000704700007047000070470000D1
:10134000704700007047000070470000B0B5864647
:1013500002208EF80500DEF80000836843F00103E8
:10136000836042B1531E032B02F0030C08D200220B
:10137000BCF1000F1AD1006801218EF80510B0BD34
:1013800022F00302A1F110035442002253F8105F2F
:10139000043A05605D68944205609D680560DD68FB
:1013A0000560F3D15242BCF1000FE4D051F8223075
:1013B000BCF1010F0360DED001EB82014A68BCF191
:1013C000020F02601CBF89680160006801218EF86D
:1013D0000510B0BD002804BF0120704710B50446B9
:1013E000407918B101206071002010BD00202071EB
:1013F000204600F005F801206071002010BD0000BB
:1014000081B0006843F20001C4F20201884201D0B9
:1014100001B0704741F21400C4F20200016841F0CB
:1014200040010160006800F040000090009801B0A9
:101430007047000080B590F82110022924D102687D
:10144000116821F00E0111602F211368C4F202010E
:101450008A4240F20401C4F2020123F00103136046
:1014600016DD3023C4F202039A421DD04423C4F295
:1014700002039A421CD05823C4F202039A421DD19F
:101480004FF4803322E000BF04218163012080BD3E
:101490000823C4F202039A420ED01C23C4F20203B2
:1014A0009A420BD1102311E04FF480730EE000BF7D
:1014B0004FF480530AE000BF012307E001F1680CFC
:1014C0004FF08073624508BF4FF480130B60012119
:1014D00080F82110426B002180F820100AB190475B
:1014E0000021084680BD000090F8210070470000F0
:1014F000B0B5044600F020FA054640F20000C2F202
:1015000000000078611C18BF044400BF00F014FA0A
:10151000401BA042FAD3B0BD2DE9F04381B040F6A4
:101520002836C2F20006327E012A03D1022001B021
:10153000BDE8F083054601202C6830764CF250302F
:101540008846FEF7C9FF022C1CD100284ED100208E
:1015500042F21004F061C4F20204206840F004007A
:101560002060206840F0400020604CF25030FEF7D0
:10157000B3FF216821F0040121600021317601B020
:10158000BDE8F08390BB4FF0FF30C8F80000D5E90C
:10159000027007EB8020874228D242F21004C4F286
:1015A00002044FF0000900BFC6F81C90206840F00C
:1015B000020020606760206840F0400020604CF22C
:1015C0005030FEF789FF216821F00201216098B9AF
:1015D000D5E9020107F5806700EB81208742E3D35C
:1015E00000200021317601B0BDE8F0830120002108
:1015F000317601B0BDE8F083C8F800700021317683
:1016000001B0BDE8F083000040F62830C2F20000CF
:10161000C069704742F21001C4F20201086840F04C
:10162000800200200A6070472DE9F04F81B040F63B
:101630002839C2F20009924699F81820012A03D1EC
:10164000022001B0BDE8F08F8046012089F8180023
:101650004CF250309B460E46FEF73EFFA0BB404684
:1016600042F21007B8F1020F18BF0420C4F20207BB
:10167000B8F1010F08BF404645424FF00008002472
:10168000C4F12001C9F81C802AFA04F00BFA01F118
:101690003A680843B4F1200158BF2BFA01F042F038
:1016A0000101396026F8020B4CF25030FEF714FFAE
:1016B0003968013521F0010248F100013A6018B99A
:1016C000002904F11004DBD0002189F8181001B0C2
:1016D000BDE8F08F42F20400C4F20200C1680906BE
:1016E0005CBF0020704740F22311C4F267510160D3
:1016F00048F6AB11CCF6EF510160C068C0B2C0092A
:10170000704700002DE9F04F82B00E68002E00F007
:10171000038141F20042C4F20102042340F2004E70
:10172000904208BF03234FF6FF7CC4F2010E0093E2
:1017300000240123C1F2100C4FF0000A4FF0000901
:1017400049E000BF012704F00C030F229A402BEA66
:10175000020207FA03F34FEA9A051A4346F82520D6
:10176000D1F804B040F20C455FEACB22DEF8082045
:1017700054BF22EA080242EA0802C4F20105CEF888
:1017800008202A685FEA8B2354BF22EA080242EA53
:1017900008022A605FEA8B33DEF8042054BF22EA95
:1017A000080242EA08025FEACB33CEF80420DEF8F2
:1017B00000204FF0010354BF22EA080242EA080267
:1017C000CEF800200E680AF1010A36FA0AF204F196
:1017D000040400F0A18003FA0AF816EA080FF1D019
:1017E0004E68664512DC122E56D8DFE806F0350B3F
:1017F0004549555555555555555555555555554DBD
:10180000510000BFD1F80C9046E000BF4FF6FF72C8
:10181000C1F2210296420FDC0022C1F2110296426F
:101820001AD00022C1F21202964215D00022C1F253
:101830002102964210D02FE00022C1F222029642ED
:101840000AD00022C1F23102964205D00022C1F234
:101850003202964220D100BF8A684AB1012A14BFE1
:10186000C0F81480C0F810804FF0080914E000BFE1
:101870004FF0040910E000BFCA6802F108090BE04C
:101880004FF0000908E000BFCA6802F1040903E054
:10189000CA6802F10C0900BF22460646BAF1080FD9
:1018A00024BF203A043637680F25954027EA0505FE
:1018B00009FA02F22A433260CA79D2067FF582AF72
:1018C00041F21803C4F202031A68AEF57E7642F0C4
:1018D00001021A601A6802F001020192019A2AF0CC
:1018E000030256F802B040F60002C4F20102904230
:1018F00010D040F60042C4F2010290423FF422AF01
:1019000041F20002C4F20102009F904208BF022788
:1019100019E700BF002716E702B0BDE8F08F00000E
:101920008068084018BF012070470000002A08BFE7
:10193000090401617047000040F63040C2F2000027
:10194000006870477047000070470000F0B581B034
:101950000446006800254769426894F83E1002F486
:101960008076FA0508D53EB16FF480724261026854
:10197000012542F400420260BA0505D5002E1EBFC3
:1019800002356FF4007242617A0516D5AEB1628DF0
:1019900094F83D30D4F830C0202908BF002A23D065
:1019A0006FF48062402905F10405426101D01029DD
:1019B00003D1016841F400710160380506D52EB1EC
:1019C000206808356FF40061416100E055B1206C7A
:1019D00040EA05012046216401B0BDE8F04002F074
:1019E00015B900BF01B0F0BD03F0F701212909D0FE
:1019F000282B08BFBCF1210F04D06FF48061416136
:101A00000435DAE794F83D10E26AB2F1080318BF32
:101A10000123203A18BF0122134208BF282921D0F0
:101A2000212939D10021CFF6FF71E1622121216303
:101A3000202184F83D10002184F83E10426822F4F1
:101A4000E06242606FF480624261026822F4806268
:101A500002604269120648BF0161204600F002FEA2
:101A6000ABE700BF0021CFF6FF71E162416821F4CE
:101A7000E06141606FF480614161016821F480613F
:101A8000016000202021206384F83D1084F83E008E
:101A9000204600F0F1FB90E76FF4806141618CE734
:101AA000F0B581B0076804467868E26A94F83E3081
:101AB00094F83DE0402B01D0102B27D1BE697D6901
:101AC000E90751D1B2F12A4F00F0BE82B2F52A0FD8
:101AD00000F0BA8200F400724FF0010C29078CEA82
:101AE000522C45D5002A43D0606B616CC9B2396174
:101AF00018B1806A002840F02481A06B002800F013
:101B0000A382806A002840F01C819DE2216C00F4D1
:101B1000007300290CBFBE6900267D69A90753D553
:101B2000002B51D0206C002818BFBE6994F83D00EE
:101B300000F02800282840F093807868002320F4E3
:101B400080607860012020EA960130064FF018008E
:101B500058BF0C20225A204684F83C3001B0BDE822
:101B6000F040FFF7F1BE00BF810557D44FF0010CE4
:101B7000A90759D5BCF1000F56D194F83E30E06A60
:101B8000226B94F83D10222940F0E280216D00295B
:101B900008BF402B00F0DC80216D002940F032812D
:101BA0002169B1F5404F40F02D8100200090786907
:101BB0000090B86900900098386840F480703860F0
:101BC000206D013093E200BFE90655D5002B53D0BC
:101BD00094F83D50786820F4E06078600020009030
:101BE00078690090386840F00100386000983868E3
:101BF00020F4806038607868000540F1408105F08D
:101C0000F7002646222840F0198156F8380F01685F
:101C1000496826F80E1C36F80E1C17E1E06AB0F58C
:101C20002A0F5FD1012062E07968720701F4006138
:101C300000F19880002940F00782690605F0040150
:101C400040F1AE8110F4806000F0AA81002940F0DC
:101C5000A781204601B0BDE8F04002F011B900BFF5
:101C60000020009079690091B9690091009984F889
:101C70003C0001B0F0BD00BF0EF0F70100F480623F
:101C8000212905F0040040F08380290640F14881B5
:101C9000002A00F04581002840F0428194F83D0080
:101CA000618D002900F0D081616A11F8012B3A6141
:101CB0006162618D01396185618D002908BF292824
:101CC00040F0C2817868282120F48060786021206B
:101CD0002063204684F83D1001B0BDE8F04000F0DC
:101CE000C1BC00BFE06AB0F12A4F01D10820E06218
:101CF00094F83E0040280BD1206D616C002801F063
:101D0000FE0018BF40F00100386101B0F0BD00BF17
:101D10002069B0F5804F65D194F83D00616C2128B1
:101D200001F0FE0118BF01313961606B08B1806AB2
:101D300038B9A06B002800F08781806A002800F085
:101D40008381786840F40060786001B0F0BD00BF26
:101D50000020009078690090B8690090009801B068
:101D6000F0BD00BF002940F06F81290605F0040195
:101D700040F1228110F4806000F01E81002940F0C3
:101D80001B81204601B0BDE8F04002F05DB900BF04
:101D9000690640F1D980002A00F0D680002840F082
:101DA000D38094F83D00618D002900F04D813969A0
:101DB000626A1170616A01316162618D0139618508
:101DC000618D002908BF2A2840F03E8120684168C3
:101DD00021F480614160222028212063204684F87C
:101DE0003D10D8E0206D002800F0C080206D012853
:101DF00040F02A81606C062101EAD010F130386190
:101E000001B0F0BD618D61B1618D012940F0E480C8
:101E1000202818BF082840F01981386820F4806015
:101E200038600020009078690090B86900900098B0
:101E3000386840F40070386058E100BF56F8340F3D
:101E40000168496826F80A1C36F80A1C19B1216C89
:101E500041F004012164796821F400617960FFF7A1
:101E600043FB01280BD0306843F6E921C0F600019E
:101E70004163FFF7DFFA10B13068416B8847608D2E
:101E800060B120684169490730D4416949063AD4B4
:101E9000608D18B1206C40F004002064206C28B1E3
:101EA000204601B0BDE8F04001F0B0BE2A2D07D1B8
:101EB00000202063282084F83D00204600F0D0FB5D
:101EC00094F83D00282859D10020CFF6FF70E06239
:101ED00000212020216384F83D00204684F83E1034
:101EE00001B0BDE8F04000F0C7B900BF0069616A09
:101EF0000870616A206801316162618D0139618514
:101F000041694906C4D50069616A0870606A013098
:101F10006062608D01386085608D0028BAD1BDE7B0
:101F2000002818BF002B00F08F80608D002800F083
:101F30008B80606A10F8011B39616062608D013826
:101F4000608501B0F0BD00BF002818BF002B00F075
:101F50007B80608D002877D03869616A0870606A7C
:101F600001306062608D013860856DE0606C062133
:101F700001EAD010F030386101B0F0BD206B2228AA
:101F800018BF222D60D100212020216384F83D005C
:101F9000204684F83E1001B0BDE8F04000F060BB80
:101FA000B1FA81F0400950EA0C004DD1204601B051
:101FB000BDE8F04001F0F0BEB1FA81F0400950EA0E
:101FC0000C0041D1BEF1210F36D1204601B0BDE851
:101FD000F04001F0F7BF00BF618D022914D1102835
:101FE00058D8012114228140C0F20102114251D07F
:101FF000396841F48061396000210091796900916C
:10200000B9690091009954E0396841F48061396000
:102010007968090563D5421E1F2A5DD801219140C8
:1020200048F28102C8F20002114255D0786840F4AB
:102030008050786053E000BF402B05D1204601B0AE
:10204000BDE8F04002F05AB801B0F0BD10F5803F95
:102050000CD1386820F480603860786800057FF51E
:10206000E0AE386820F48060386038E0122A02D18F
:1020700001287FF4D2AE1028F3D8012101FA00F034
:102080001421C0F201010842EBD0386840F48060AE
:10209000386024E0396841F4006139600021009122
:1020A00079690091B96900910099396821F48061DA
:1020B00039607968090519D5421E1F2A1AD80121ED
:1020C000914048F28102C8F20002114212D07868B1
:1020D00040F48050786009E010F5803FA6D00020E1
:1020E000009078690090B869009000980020206501
:1020F00001B0F0BD10F5803FE9D0F7E77047000070
:1021000070B5B8B3044690F83D0028B9002084F8B3
:102110003C00204600F062FA242084F83D0020684C
:10212000016821F001010160016841F40041016092
:10213000016821F40041016000F05EFD48F2804139
:10214000C0F21E0140F60013D4F804E088424FF0BC
:102150000001C0F23D0348F2A16C4FF0000238BF0D
:1021600001219842C0F2010C38BF0122E64538BF78
:102170000A460AB1012070BD4DF68361C4F21B31DD
:10218000A0FB01122168950C4B684FF4967623F062
:102190003F0343EA9243754344F6D3564B60C1F282
:1021A00062060B6AA5FB0656B50923F03F03E64518
:1021B00038BF950C6A1C1A430A62CA6948F2A066C5
:1021C0004CF6FF73C0F20106B64522EA03020BD8B3
:1021D00001384FEA4E03B0FBF3F001306FF31F30CC
:1021E000042898BF04201EE0A368013863B11923B6
:1021F0000EFB03F3B0FBF3F001306FF31F3078B147
:1022000000F5804008E000BF0EEB4E03B0FBF3F09A
:1022100001306FF31F3028B100F5004003E000BF2C
:10222000012000E001201043C8610868D4E90723B9
:1022300020F0C000104318430860886848F2FF325D
:1022400004F10C0690434CCE18431043A5698860F6
:10225000C86820F0FF0030432843C860086840F099
:102260000100086000202021206484F83D102063D4
:1022700084F83E0070BD0000704700007047000009
:102280007047000080B581B04FF0000CCDF800C061
:1022900090F83DC0BCF1200F62D140F2080CC2F2B0
:1022A000000CDCF800C04BF2895E4FEADC0CC1F296
:1022B000F84EACFB0ECE4FEA1E2C4FF0190E0CFB65
:1022C0000EFCCDF800C0DDF800C0ACF1010CCDF87B
:1022D00000C0DDF800C0BCF1000F47D0D0F800E02E
:1022E000DEF818C05FEA8C7C35D5DDF800C0ACF1B3
:1022F000010CCDF800C0DDF800C0BCF1000F35D0F6
:10230000D0F800E0DEF818C05FEA8C7C23D5DDF859
:1023100000C0ACF1010CCDF800C0DDF800C0BCF18C
:10232000000F23D0D0F800E0DEF818C05FEA8C7C04
:1023300011D5DDF800C0ACF1010CCDF800C0DDF81E
:1023400000C0BCF1000F11D0D0F800E0DEF818C0DA
:102350005FEA8C7CB7D490F83CC0BCF1010F11D17E
:102360004FF0020C604601B080BD00BF002220216A
:10237000026380F83D1080F83E2000F1400E4FF0DF
:10238000020C35E0DEF800C05FEACC7C05D1DEF857
:1023900000C04CF0010CCEF800C0DEF800C02CF4F8
:1023A000006CCEF800C04FF0220C80F83DC04FF01A
:1023B000100C80F83EC04FF0000CC0F840C04262E4
:1023C0004385428D02850022CFF6FF72C2624164CE
:1023D00080F83CC0DEF804004FF4807140F4E06007
:1023E000CEF80400DEF8000040F48060CEF8000073
:1023F000DEF800000843CEF80000604601B080BD62
:102400002DE9F04383B01E46174689460446FFF780
:1024100093FA94F83D10202920D10546206800BF8A
:102420008169890716D5FFF787FA411B20681A29A9
:10243000F6D381698907F3D500202021206384F831
:102440003D1084F83E00216C41F02001216484F8A5
:102450003C0003E094F83C10012903D1022003B0B2
:10246000BDE8F083012184F83C100168C90703D15D
:10247000016841F001010160016840F2020821F4A5
:1024800000610160212184F83D10102184F83E1084
:102490000021216467626685618DC0F20108218593
:1024A000A8F10211E162E16A0A9E11F5803F18BFAE
:1024B00001291DD1016841F48071016020464FF06F
:1024C000011100223346009501F0D8FE50B120687A
:1024D0000068C00544BF4FF400702064012003B0C1
:1024E000BDE8F0832069B0F5804F07D1FE2015E0EC
:1024F0000829DFD0216B1229DCD0DFE7062000EAB3
:10250000D9102168F030086108F1060120463246F2
:102510002B4601F09DFF0028E0D1FF20216800EA52
:10252000090008612046414632462B4601F090FFE3
:102530000028D3D10020029020684169029180696F
:102540000290029806E000BF204631462A4601F07C
:1025500035FE18BB208D68B3204631462A4601F06F
:10256000E7FFD8B9606A2168024612F8013B0B61A7
:102570006262628D013A6285228D531E23854F6906
:102580007F07E1D51B04DFD0437802300B61606226
:10259000608D01386085901E2085D5E7206C042869
:1025A0009CD12068016841F400710160012003B0F2
:1025B000BDE8F0832068016841F4007101602020CB
:1025C00084F83D00002084F83E0084F83C0003B00D
:1025D000BDE8F083704700007047000010B586B07A
:1025E00045F600010068C4F200010022884204920E
:1025F00002D006B010BD00BF41F21804C4F20204BC
:10260000206840F008002060206800F00800019079
:1026100001984FF44060029012200390032005902F
:1026200001F5344002A9FFF76DF86068002140F41D
:10263000800060606068002200F4800001900198D2
:10264000212000F0BFF8212000F0A8F8222000216E
:10265000002200F0B7F8222000F0A0F806B010BD6C
:102660007047000070470000B0B538B304460068FA
:10267000D4E901124CF6CC43036045F25553036094
:1026800041608260FFF758F92168CA6892070FD04D
:10269000054602E0C86880070AD0FFF74DF9401BE5
:1026A00021682828F6D3C8688007F3D00320B0BD7E
:1026B0004AF6AA2008600020B0BD00BF0120B0BDCE
:1026C00001684AF6AA2200200A60704740F2000022
:1026D00040F63041C2F20000C2F2000100780A6800
:1026E000104408607047000080B542F20000C4F258
:1026F0000200016841F010010160032000F08EF833
:102700000F2000F005F800F027F8002080BD000041
:1027100070B540F20006C2F2000640F208013278BD
:10272000C2F200014FF47A730968B3FBF2F2044677
:10273000B1FBF2F1084600F061FC0F2C4FF00105EF
:1027400008D838B94FF0FF3021460022002500F0AC
:1027500039F87460284670BD82B041F21800C4F2A6
:1027600002000168022241F001010160016801F0EC
:10277000010101910199416841F080514160406837
:1027800000F08050009000980420C4F2010001681D
:1027900062F31A61016002B070470000002848BF70
:1027A0007047C1B200F01F00012202FA00F04EF2A1
:1027B0000012CEF2000242EAD10121F003010860CA
:1027C0007047000010B54EF60C5CCEF2000CDCF841
:1027D0000030C3F3022E8EF00704042C28BF04241B
:1027E000BEF103034FF0FF3E0EFA04F438BF00239E
:1027F000A14399400EFA03F39A43114300F00F02EC
:1028000000F160430901043A03F56443624400287F
:1028100048BF02F10C03197010BD00004EF60C51B8
:10282000CEF200010A684FF6FF031A4060F30A2255
:1028300042F0806040F0FD700860704780B501286C
:1028400018D0022836D0102832D141F20401C4F247
:1028500002010A6851F8040CC00129D5C2F3834073
:102860002DA3185CD2033DD440F60012C0F23D0205
:10287000504343E041F20400C4F20200C16940F257
:1028800002320A40B2F5817F04BF4FF4004080BDA0
:1028900001F44071B1F5407F1CD0B1F5007F07D144
:1028A000006A49F64041800701EAE07080BD00BF40
:1028B000002080BD00F0B4F941F20401C4F202012D
:1028C00009680222C1F3813102EB4101B0FBF1F052
:1028D00080BD00BF50F8040C4FF22441800301EA90
:1028E000E07080BD0A6810A3C2F340429A5C41F2D6
:1028F0000023C0F27A03B3FBF2F2504309684902A5
:1029000048BF80BD4AF6AB214000CAF6AA21A0FB11
:102910000101480880BD00BF02030405060708093D
:102920000A0B0C0D0E0F1010010200002DE9F041F2
:1029300082B00446007841F21C06C007C4F20206C9
:102940004AD0306810F0805808D1306840F080508C
:102950003060306800F080500190019847F2000725
:10296000C4F200073868C00512D4386840F480709B
:102970003860FEF7E1FF05463868C00508D4FEF769
:10298000DBFF401B6428F7D9032002B0BDE8F081CB
:10299000706810F4407012D0616801F44071884290
:1029A0000DD0706840F24042C4F24222012320F46C
:1029B000407113600023C007136071602AD17068F2
:1029C000616820F440700843B8F1000F706003D1D3
:1029D000306820F0805030602068810707D556F8B5
:1029E000181CA26821F44041114346F8181CC00687
:1029F00004D4002002B0BDE8F08100BF56F8180CE6
:102A0000E16820F48000084346F8180C002002B06A
:102A1000BDE8F081FEF790FF054641F2883700BF20
:102A200070688007CBD4FEF787FF401BB8424FF099
:102A30000300F5D9EBE700002DE9F04381B0002851
:102A400000F0858042F20008C4F202080446D8F87B
:102A500000000D4600F0070088420CD2D8F80000B4
:102A600020F007002843C8F80000D8F8000000F064
:102A70000700A8426BD1206841F204098107C4F223
:102A8000020917D5410705D5D9F8001041F4E061D6
:102A9000C9F80010010705D5D9F8001041F46051BC
:102AA000C9F80010D9F80010A26821F0F001114314
:102AB000C9F80010C00741D1D8F8000000F00700A5
:102AC000A8420CD9D8F8000020F007002843C8F825
:102AD0000000D8F8000000F00700A84237D12068B5
:102AE000410707D5D9F80010E26821F4E0611143ED
:102AF000C9F80010000708D5D9F80000216920F4B2
:102B0000605040EAC100C9F80000D9F8002002F086
:102B10000C00082841F20020C0F27A0050D146F69D
:102B2000A413C2F38341C0F60003595CD2033BD423
:102B300040F60010C0F23D00484341E060680228C2
:102B40000AD001282AD159F8041C890308D401208D
:102B500001B0BDE8F08300BF59F8041C8901F6D527
:102B6000D9F8001021F003010843C9F80000FEF76E
:102B7000E3FE064641F28837D9F80000616800F0AC
:102B80000C00B0EB810F97D0FEF7D6FE801BB84249
:102B9000F2D9032001B0BDE8F08300BF59F8041C4E
:102BA0008907D4D5DCE700BFD9F8002046F6A21388
:102BB000C2F34042C0F600039A5C4843B0FBF2F017
:102BC000D9F8001046F68A12C1F30311C0F60002CC
:102BD000515C40F2080220FA01F140F20400C2F216
:102BE00000000068C2F200021160FFF791FD0020B2
:102BF00001B0BDE8F083000040F2080041F204019A
:102C0000C2F20000C4F202010068096846F69A1296
:102C1000C1F30221C0F60002515CC84070470000B9
:102C200040F2080041F20401C2F20000C4F20201C5
:102C30000068096846F69A12C1F3C221C0F6000284
:102C4000515CC840704700002DE9F04182B0002877
:102C500068D00446007841F20006C007C4F20206BC
:102C600025D0706800F00C0004281BD0706800F0BC
:102C70000C00082802D17068C00313D460680028D3
:102C800000F06881B0F5A02F00F07C81B0F5803FA6
:102C900000F07C81306820F480303060306820F4AF
:102CA000802076E13068800301D56068D0B3207859
:102CB000800718D5706810F00C0F07D0706800F00E
:102CC0000C0008286ED17068C0036BD43068800790
:102CD00002D52069012825D13068616920F0F8000B
:102CE00040EAC1003060207800071FD420784007F8
:102CF00032D4E56995B1706800F00C00082840F006
:102D00008F80012D0ED07068216A00F480328A42D3
:102D100008D1616A00F47010884203D1002002B02B
:102D2000BDE8F081012002B0BDE8F081A069002873
:102D300062D00020C4F242200121C0F88014FEF7C6
:102D4000FBFD0546706A800700F18C80FEF7F4FDFC
:102D5000401B0228F6D92AE1F06910F0805808D10A
:102D6000F06940F08050F061F06900F08050009010
:102D7000009847F20007C4F200073868C00529D45C
:102D8000386840F480703860FEF7D6FD054600BF15
:102D90003868C0051ED4FEF7CFFD401B6428F7D964
:102DA00005E100BF2069002840F20000C4F2422083
:102DB00000F0828001210160FEF7BEFD054600BFE4
:102DC000306880073FF588AFFEF7B6FD401B02284C
:102DD000F6D9ECE0E068002800F08080052800F0DB
:102DE0009780012800F09880306A20F0010030625E
:102DF000306A20F0040092E00020C4F2422000215A
:102E0000C0F88014FEF798FD054600BF706A800781
:102E10007FF56CAFFEF790FD401B0228F6D9C6E0A7
:102E20000027C4F2422700203866FEF785FD022DF8
:102E300005460BD13068800140F1BE80FEF77CFD75
:102E4000401B02284FF00300F4D968E73068800186
:102E50007FF564AFFEF770FD401B02284FF00300C2
:102E6000F4D95CE740F20800C2F20000006844F6C2
:102E7000D351C1F26201A0FB0101480A019000BFD9
:102E800000BF0198411E002801913FF42FAF00BF01
:102E90000198411E002801913FF428AF00BF01981E
:102EA000411E002801913FF421AF00BF0198411E4F
:102EB00000280191E4D119E700210160FEF73CFDF3
:102EC000054600BF306880077FF50DAFFEF734FD83
:102ED000401B02284FF00300F4D920E7306A20F0AD
:102EE00001003062306A20F004003062FEF724FDF9
:102EF000054641F2883700BF306A800720D5FEF7CB
:102F00001BFD401BB8424FF00300F5D907E700BF97
:102F1000306A40F004003062306A40F001003062F4
:102F2000FEF70AFD054641F2883700BF306A800788
:102F300006D4FEF701FD401BB842F7D937E000BFC9
:102F4000B8F1000F7FF4D5AEF06920F08050F06149
:102F5000CFE600BF306820F480303060306820F465
:102F600080203060FEF7E8FC054600BF3068800333
:102F70007FF59DAEFEF7E0FC401B64284FF0030098
:102F8000F4D9CCE6306840F480203060306840F4FA
:102F900080303060FEF7D0FC054600BF306880030B
:102FA0003FF585AEFEF7C8FC401B6428F6D9032028
:102FB00002B0BDE8F08100BF206AB0F5803F05D1C6
:102FC0007168A26821F40031114371607168626A0E
:102FD00021F4741111430843706001203866FEF734
:102FE000ABFC0446306880013FF598AEFEF7A4FCC8
:102FF000001B02284FF00300F4D990E6411E002088
:10300000B0EB116F1CBF012070474EF21002CEF2E0
:10301000000251604EF62351CEF20001F0230B70F6
:1030200007219060116070477047000070470000F2
:1030300010B590F83C20012A4FF0020233D080F8FE
:103040003D200268D2F804E0D2F808C00C682EF0E7
:103050007003234340F2FF74C4F20004A2425360A1
:103060000ADCB2F1804F13D040F20043C4F20003F7
:103070009A420DD011E000BF42F60043C4F20103B2
:103080009A4205D040F60003C4F200039A4204D1EC
:1030900049682CF08003194391600121002280F8D7
:1030A0003D1080F83C20104610BD0000002804BFF1
:1030B0000120704710B5044690F83D0028B9002063
:1030C00084F83C00204600F067F8022084F83D00B8
:1030D000206840F2FF730268C4F2000342F6004C1D
:1030E0009842C4F2010C15DCB0F1804F1AD040F2C6
:1030F0000041C4F20001884214D0984218DCB0F1BB
:10310000804F1DD040F20041C4F20001884217D028
:103110001AE000BF604505D040F60001C4F200018E
:103120008842EAD1A16822F070020A439842E6DDA3
:10313000604505D040F60001C4F20001884203D189
:10314000216922F440720A43A36922F08001D4F875
:1031500004E0E268194360450160C262C0F828E0FB
:1031600002D16169CCF8301001214161002084F85E
:10317000461084F83E1084F83F1084F8401084F81C
:10318000411084F8421084F8431084F8441084F805
:10319000451084F83D1010BD10B582B0006840F6AF
:1031A0000001C4F20001884214D040F20041C4F290
:1031B0000001884228D141F21C00C4F202000168DB
:1031C0001D2441F002010160006800F0020001903E
:1031D00001980DE041F21C00C4F2020001681E24B7
:1031E00041F004010160006800F0040000900098C4
:1031F000204600210022FFF7E5FA204602B0BDE894
:103200001040FFF7CBBA00BF02B010BD90F83D10E0
:1032100001291CBF01207047022180F83D10006881
:1032200040F2FF72C168C4F20002904241F0010115
:10323000C16009DCB0F1804F12D040F20041C4F20D
:10324000000188420CD012E042F60041C4F20101B4
:10325000884205D040F60001C4F20001884206D140
:10326000816801F00701062904BF0020704701684A
:1032700041F00101016000207047000080B590F826
:103280003C20012A4FF0020200F0C28080F83D206D
:10329000D0F800C04FF67772DCF8083023EA02025B
:1032A000CCF808200B684F2B28DC1F2B44DD202B8B
:1032B00045D0302B43D0402B40F0AC80D1F804E017
:1032C000C968DCF82030DCF8202022F00102CCF8BC
:1032D0002020DCF8182022F0F00242EA011123F04D
:1032E0000A0242EA0E02CCF81810CCF82020DCF8D2
:1032F000081041F0470121F0300180E06F2B27DDFD
:10330000B3F5005F48D0B3F5805F7AD0702B40F002
:103310008180D1E901E3C968DCF8082043EA0E03A3
:1033200022F47F4243EA01211143CCF80810DCF873
:10333000081041F0770162E00BB1102B6AD1DCF884
:10334000081021F07001194341F0070157E000BF58
:10335000502B35D0602B5DD1D1F804E0C968DCF882
:103360002030DCF8202022F01002CCF82020DCF8FD
:10337000182022F4704242EA013123F0A00242EA0E
:103380000E12CCF81810CCF82020DCF8081041F010
:10339000670121F0100132E0D1E901E3C968DCF8EE
:1033A000082043EA0E0322F47F4243EA012111433D
:1033B000CCF80810DCF8081041F480411FE000BF91
:1033C000D1F804E0C968DCF82030DCF8202022F0D5
:1033D0000102CCF82020DCF8182022F0F00242EAAA
:1033E000011123F00A0242EA0E02CCF81810CCF8C0
:1033F0002020DCF8081041F0570121F02001CCF822
:1034000008100022012180F83D10002180F83C10B6
:10341000104680BD0122F5E77047000010B5016835
:1034200004460869800744BFC8685FEA807039D4E1
:103430000869400744BFC8685FEA40703ED4086925
:10344000000744BFC8685FEA007045D40869C00639
:1034500044BFC8685FEAC0604AD40869C0071CBF9F
:10346000C8685FEAC07051D10869000644BFC868E7
:103470005FEA006052D40869400644BFC8685FEA4A
:10348000406053D40869800646BFC8685FEA806020
:1034900010BD6FF0200220460A61BDE81040FFF722
:1034A000C5BD00BF6FF00200086101202077886968
:1034B000800743D02046FFF7AFFF45E06FF00400E0
:1034C000086102202077886910F4407F40D02046B0
:1034D000FFF7A2FF42E000BF6FF008000861042080
:1034E0002077C86980073DD02046FFF795FF3FE071
:1034F0006FF01000086108202077C86910F4407F41
:103500003AD02046FFF788FF3CE000BF6FF0010093
:103510000861204600F03EF82168A5E76FF08000C2
:1035200008612046FFF780FD2168A4E76FF04000A6
:103530000861204600F012FA2168A3E7204600F057
:1035400025F8204600F024F82168002020776FE756
:10355000204600F01BF8204600F01AF821680020F1
:1035600020776CE7204600F011F8204600F010F8B4
:1035700021680020207769E7204600F007F8204600
:1035800000F006F821680020207766E77047000009
:10359000704700002DE9F0410446006840F2004603
:1035A000C4F20006B04240F0B68140F6BC05C2F25B
:1035B0000005B5F846004FF47F62C1B202EA001080
:1035C00041F27B435843002918BF410CB5F85E0017
:1035D00085F84010C7B202EA001000FB03F240F683
:1035E0004830C2F200008189002F18BF570C85F8BF
:1035F000587099B1D0E90023891A4FF0000171EB9E
:10360000030209D2C1894289914280F09F81013130
:10361000C181818C21B917E0C0F80E10818C99B15D
:10362000D0E90623891A4FF0000171EB030209D299
:10363000C18C428C914239BF0131C1840121018585
:1036400002E000BFC0F82610818F81B1D0E90C23C1
:10365000891A4FF0000171EB03020DD2C18F428F26
:10366000914239BF0131C1870121A0F84010B0F863
:10367000541031B919E000BFC0F83E10B0F8541032
:1036800099B1D0E91223891A4FF0000171EB0302BE
:1036900010D2B0F85610B0F85220914239BF013123
:1036A000A0F856100121A0F85810B0F86C1031B9EC
:1036B00019E000BFC0F85610B0F86C1099B1D0E90D
:1036C0001823891A4FF0000171EB030210D2B0F8F1
:1036D0006E10B0F86A20914239BF0131A0F86E1027
:1036E0000121A0F87010B0F8841031B919E000BFC2
:1036F000C0F86E10B0F8841099B1D0E91E23891A71
:103700004FF0000171EB030210D2B0F88610B0F850
:103710008220914239BF0131A0F886100121A0F822
:103720008810B0F89C1031B91CE000BFC0F88610BA
:10373000B0F89C10B1B1D0E92423891A4FF00001F0
:1037400071EB03020CD2B0F89E10B0F89A209142AF
:1037500039BF0131A0F89E100121A0F8A01001E0AE
:10376000C0F89E1040F64807C2F200073878B7F854
:103770006010421CF86D4FF6FF783A70FEF7D0F8F3
:1037800060B1B7F858100020A7F862000029A7F828
:10379000540018BFC7F8560014E000BFB7F8621015
:1037A000B7F85A00814203D20131A7F8621004E051
:1037B0000121A7F85410A7F85810404504BF002075
:1037C000A7F86200F86EB7F87010FEF7A9F858B1C4
:1037D000B7F868100020A7F872000029A7F8640065
:1037E00018BFC7F8660013E0B7F87210B7F86A00A0
:1037F000814203D20131A7F8721004E00121A7F839
:103800006410A7F86810404504BF0020A7F87200B4
:10381000A868A989FEF784F840B1A9880020E8814A
:103820000029288018BFC5F802000EE0E989E88861
:10383000814203D20131E98103E000BF01212980E7
:10384000A980404504BF0020E881A869A98BFEF744
:1038500067F848B1A98A0020E8830029288218BFA8
:10386000C5F812000FE000BFE98BE88A814203D25D
:103870000131E98303E000BF01212982A98240458B
:1038800004BF0020E883A86AA98DFEF749F848B173
:10389000A98C0020E8850029288418BFC5F82200DB
:1038A0000FE000BFE98DE88C814203D20131E98548
:1038B00003E000BF01212984A984404504BF002002
:1038C000E885A86BA98FFEF72BF848B1A98E0020D8
:1038D000E8870029288618BFC5F832000FE000BF2E
:1038E000E98FE88E814203D20131E98703E000BF0E
:1038F00001212986A986404504BF0020E88740F6BB
:103900002C15C2F20005284600F078FE05F12000D3
:1039100000F074FE206806F58061884218BFBDE89B
:10392000F08140F64800C2F20000C16840F6BC04D5
:103930000131C2F20004C16004F14000FCF788FDCF
:1039400004F15800BDE8F041FCF782BD012101827D
:10395000818C00297FF464AE76E600007047000099
:10396000002804BF0120704710B5044690F84100BC
:1039700028B9002084F84000204600F063F8242095
:1039800084F841002068D4E90212C36823F400538C
:10399000C360036923F440531A430261D4E904234A
:1039A0001143C268194341F20C639A431143C16049
:1039B0004169A26921F44071114343F60002C4F247
:1039C00001029042416103D0FFF716F902E000BF07
:1039D000FFF726F96268192148439100B0FBF1F026
:1039E00048F21F51C5F2EB11A0FB01235A094FF613
:1039F0009C73C0F6FF7302FB0300322303EB00103D
:103A0000A0FB0101F02303EA5113206803EB02122B
:103A1000C1F3431111448160016921F490410161B6
:103A2000416921F02A014161C16841F40051C1603E
:103A300000202021606484F8411084F84210606303
:103A400010BD000070B586B040F60044C4F2010419
:103A5000006804F5305100268842049602D006B072
:103A600070BD00BF41F21800C4F20200016802AD4F
:103A700041F480410160016801F4804101910199A4
:103A8000016841F0080101600068294600F0080063
:103A9000019001984020029002200390032005909D
:103AA0002046FDF72FFE8020CDE90206204629465C
:103AB0000496FDF727FE0420C4F20100016841F0DE
:103AC000E06141F00401016006B070BDFEE7000056
:103AD00040F6F810C2F20000FDF738BF40F6F810CB
:103AE000C2F20000FDF7DCBF10B581B000210091EB
:103AF000406A40F20801C2F2000190F83DC0096836
:103B00004BF28952C908C1F2F842A1FB0212110A14
:103B1000232251430091009911B30099013900917A
:103B20000168096889051FD50099C9B10099013953
:103B3000009101680968890516D5009981B100993D
:103B4000013900910168096889050DD5009939B1DD
:103B5000009901390091016809688905DBD403E007
:103B6000016C41F020010164446B4FF0000E002C09
:103B70001CBF0021A162816B00291CBF00228A6248
:103B80000268002C136823F480631360A0F82AE015
:103B900018BFC4F834E000291CBF00234B63116830
:103BA00021F00101116090F83D1060290CD1202115
:103BB00080F83D10002180F83E10016401B0BDE89E
:103BC0001040FDF7BFBE00BF0CF02801282911D11D
:103BD000116841F001011160116841F480611160C8
:103BE00000210163282180F83D1001B0BDE810409C
:103BF000FEF784BA202180F83D10002180F83E10A5
:103C000001B0BDE81040FEF779BA000010B50446D7
:103C100090F83D1090F83E00B0F1100218BF01225C
:103C2000403818BF0120024208BF222934D001F0D9
:103C3000280028283AD100202063282084F83D005D
:103C400020684168090542D5416821F4006141605E
:103C5000606B90F82110012958D1A06B43F6E9213F
:103C6000C0F600014163FDF7E5FB002861D0206844
:103C70004169490606D50069616A0870616A206871
:103C800001316162016821F001010160202084F8A6
:103C90003D00A06B4BE000BF2068026822F4006288
:103CA00002604268120505D50CE000BF206842683A
:103CB000120507D4602905D0202184F83D10002189
:103CC00084F83E100021216341680905BCD494F8B2
:103CD0003D10602950D1202184F83D10002121643D
:103CE0004169490606D50069616A0870616A206801
:103CF00001316162016821F0010101602046FDF798
:103D000021FE206C000717D11BE000BF43F6E9211C
:103D1000C0F600014163FDF78DFB50B12168606B77
:103D20000A6822F001020A60202184F83D10416BEC
:103D30008847206C000704D02068416821F4E061C6
:103D4000416094F83D00216C490758BF10BD2828F8
:103D500010D10020CFF6FF70E06200212020216307
:103D600084F83D00204684F83E10BDE81040FEF780
:103D700083BA00BF10BD00BF4169490605D500697F
:103D8000616A0870606A013060622046FEF7B6F929
:103D9000206C0007D0D1D4E7C16A428D042A07D134
:103DA0000168426A4B6823F480634B60096911E043
:103DB000428D032A16D102680229536823F48063D6
:103DC000536005D0042903D0116821F4806111608B
:103DD0001169426A1170416A01314162418D0139B4
:103DE00041857047428D022A12D101390F2919D815
:103DF000DFE801F008121812181818181818181807
:103E00001818180801680A6822F480620EE000BFE2
:103E10000168426ACAE700BF01680A6842F480622A
:103E200004E000BF01680A6842F400720A60096990
:103E3000426A1170416A02684B1C4362438D013B28
:103E4000438512694A70416A026801314162418DBD
:103E500001394185516821F440715160202180F879
:103E60003D1090F83E200021402A80F83E1003D1FA
:103E70000163FEF7AFBB00BF12210163FEF7FEB97D
:103E800081B090F83D10222977D1418D042913D3B8
:103E90000168426A09691170416A01314162418DCC
:103EA00001394185418D032967D10068416821F4BA
:103EB0008061416001B07047C26A022A58D001296E
:103EC00056D80021009140F20801C2F200010968B1
:103ED0004BF28952C908C1F2F842A1FB0212110A41
:103EE00001EB8101009100990139009100990029AD
:103EF00046D001680A6892051AD5009901390091E7
:103F00000099E9B301680A68920511D50099013951
:103F100000910099A1B301680A68920508D500993B
:103F200001390091009959B301680A689205DAD401
:103F30000A6822F480620A604A6822F4E0624A60F9
:103F40000969426A1170416A01314162418D01394A
:103F50004185202180F83D1090F83E200021402A24
:103F600080F83E1028D1016301B0FEF733BB00BFDB
:103F70000068416821F48061416001B0704700BF72
:103F8000016C41F0200101640168426A4B6823F42E
:103F9000E0634B6009691170416A01314162418DF2
:103FA00001394185202180F83D10002180F83E1024
:103FB00001B0FEF7A3B800BF1221016301B0FEF704
:103FC0005DB90000C16A90F83D20212A18BF7047F2
:103FD000428D4AB1416A026811F8013B13614162A6
:103FE000418D01394185704711F5803F18BF08297F
:103FF00018D101684A6822F4E0624A600A6842F413
:1040000000720A6000212022016380F83D2090F8B0
:104010003E2080F83E10402A08BFFEF7DDBAFEF7CA
:104020002FB900BF2029E4D001684A6822F4E06279
:104030004A6011210163002180F83E10202180F8A0
:104040003D10FEF71DB9000090F83D1090F83EC0FD
:10405000C26A038D002B08BF212919D0212905D060
:10406000BCF1400F08BF222900D07047418D69B3D1
:1040700090F83E10402908BF00F040B8416A02683D
:1040800011F8013B13614162418D0139418570474F
:1040900012F5803F18BF082A1ED101684A6822F431
:1040A000E0624A600A6842F400720A60002120223D
:1040B000016380F83D2090F83E2080F83E10402AB1
:1040C00008BFFEF789BAFEF7DBB800BF0068416899
:1040D00021F4806141607047202ADED001684A687F
:1040E00022F4E0624A6011210163002180F83E1051
:1040F000202180F83D10FEF7C3B8000090F83D1075
:10410000026D5AB1026D012A14D10168826CD2B2DB
:104110000A61016D01310165704700BFC26C816C9D
:10412000012A15D10268C9B21161016D0231016520
:10413000704700BF026D022A12D1222918D10168EE
:104140000A6842F480720A60016D013101657047AE
:104150000268C1F307211161016D013101657047EA
:1041600000684169090644BF00210161704700BF32
:10417000428D5AB1212909D1416A026811F8013BE7
:1041800013614162418D013941857047428D002A9A
:1041900008BF2129EAD101684A6822F4E0624A6036
:1041A0000A6842F400720A6000212022016380F84C
:1041B0003D2080F83E10FEF70FBA000070B503688E
:1041C000044653F8140F400711D40E46481C29D05A
:1041D00086BB00BF1868400527D4FDF7ADFB2368F8
:1041E00053F8140F400739D518684007F2D500205E
:1041F00070BD00BF18684007F9D41868400514D492
:1042000018684007F3D4186840050ED418684007B2
:10421000EDD41868400508D4186840074FF0000036
:1042200048BF70BD18684005E4D56FF48060186021
:10423000042014E0154603E053F8140F4007D6D4C9
:1042400018684005F1D4FDF777FB401B2368B042A6
:10425000F2D958694007EFD4202000E02020002147
:104260002022216384F83D2084F83E10226C104304
:104270002064012084F83C1070BD00002DE9F0415D
:10428000054600681E46144601F47F0201338FB2D2
:1042900042D0DDF81880B2F5803F40F08780406959
:1042A0003840C01BB0FA80F04009A04240F0C880FE
:1042B0004EB924E040693840C01BB0FA80F0400994
:1042C000A04240F0BD80FDF737FBA0EB0801286855
:1042D000B142EFD941693940C91BB1FA81F14909AD
:1042E000A142E7D19BE000BF40693840C01BB0FA53
:1042F00080F04009A0424FF0000040F0A680FDF79A
:104300001BFB286841693940C91BB1FA81F1490991
:10431000A142E9D183E000BFB2F5803F24D100BFC4
:1043200041693940C91BB1FA81F14909A14240F004
:10433000878041693940C91BB1FA81F14909A1421D
:1043400040F07E8041693940C91BB1FA81F14909C9
:10435000A14275D141693940C91BB1FA81F14909BE
:10436000A142DDD06CE000BF81693940C91BB1FAC0
:1043700081F14909A14263D181693940C91BB1FA70
:1043800081F14909A1425BD181693940C91BB1FA68
:1043900081F14909A14253D181693940C91BB1FA60
:1043A00081F14909A142DFD04AE000BF806938406D
:1043B000C01BB0FA80F04009A04241D146B923E0C9
:1043C00080693840C01BB0FA80F04009A0423BD160
:1043D000FDF7B2FAA0EB08012868B142F0D9816973
:1043E0003940C91BB1FA81F14909A142E8D116E06F
:1043F00080693840C01BB0FA80F04009A0424FF0FD
:10440000000018BFBDE8F081FDF796FA28688169C1
:104410003940C91BB1FA81F14909A142E8D1002014
:104420002021286385F83D1085F83E00296C41F075
:104430002001296485F83C000120BDE8F08100BF1F
:104440000020BDE8F08100BF0020BDE8F081000041
:10445000F0B581B0044600681D4643698FB203EA97
:104460000701B94202D1002001B0F0BD41691646F2
:10447000013201F4806125D0002940D1CEB100BFC6
:10448000FDF75AFA411B2068B14203D9416939400E
:10449000B9424BD141693940B942E4D0416949053B
:1044A000EED52CE041693940B942DCD0416949057B
:1044B00025D4FDF741FA206841693940B942F1D06D
:1044C000202024E0D9B941693940B942CBD04169B3
:1044D000490514D441693940B942C4D041694905FC
:1044E0000DD441693940B942BDD04169490506D46E
:1044F00041693940B942B6D041694905E3D50168FF
:1045000041F4007101606FF4806141610420002179
:104510002022216384F83D2084F83E10226C104351
:10452000206484F83C10012001B0F0BD2020EEE7AB
:1045300070B50368044653F8140F000611D40E46F4
:10454000481C29D086BB00BF1868400527D4FDF75A
:10455000F3F9236853F8140F000639D518680006DC
:10456000F2D5002070BD00BF18680006F9D41868A5
:10457000400514D418680006F3D4186840050ED41A
:1045800018680006EDD41868400508D418680006BD
:104590004FF0000048BF70BD18684005E4D56FF4C7
:1045A00080601860042014E0154603E053F8140FEF
:1045B0000006D6D418684005F1D4FDF7BDF9401BBC
:1045C0002368B042F2D958690006EFD4202000E0F9
:1045D000202000212022216384F83D2084F83E1011
:1045E000226C10432064012084F83C1070BD000050
:1045F000FEE70000FEE700007047000080B501788C
:1046000011B14289012A07D141680022CA801030C5
:1046100000680021017080BD012912D140F6F032FE
:10462000C2F20002518B612924BF6121518342688B
:10463000438BD0F810C0D180B3FA83F149098CF8CC
:1046400000100189612924BF612101810278022AB9
:1046500052D1428862B3027E32B3B0F81CC002EB82
:1046600082034FF0000EBCEB430FA0F81EE01BD2FC
:104670000CF1010C4FEA430E1FFA8CF3AEEB03036F
:10468000594391FBF2F146F26762C6F2666281FB22
:104690000212911001EBD27142680B04A0F81CC009
:1046A000D18029D1002125E042680021D18021E07C
:1046B000427E00238383BAB1B0F81EC002EB8203AE
:1046C0005B00634510D90CF1010C1FFA8CF35943C0
:1046D000B1FBF2F14CF6CD42CCF6CC42A1FB02127A
:1046E000C2F3CF01A0F81EC04268438BD180B3FA59
:1046F00083F14909026911704168C988002918BF0E
:1047000080BD143000680021017080BD704700003A
:10471000FDF7DCBF7047000040F64C20C2F20000FD
:10472000FEF77CBE40F69420C2F20000FEF776BE93
:1047300040F69010C2F20000FCF7BABB40F69010B1
:10474000C2F20000FCF7B4BBB0B540F62C11C2F2C7
:10475000000191F8570091F8582091F84A4040EA3A
:10476000420091F84C3091F8442040EA840091F8DE
:1047700046C040EAC30091F8533091F8554040EAF2
:10478000021091F85E2040EA4C1043EA440391F88D
:10479000544040EA821C91F8562043EA840343EADD
:1047A000C20291F8593091F85A4042EA031291F846
:1047B0005B3042EA441291F85C4042EA831291F87D
:1047C00060E091F8505042EAC41291F8404091F8EC
:1047D000423091F84E1040F648004EEA0515C2F2FC
:1047E000000045EA8111817480F83B10417D4274DC
:1047F00080F83A204A1E062A80F810C00475C37457
:1048000080F839C080F83C4080F83D3080F83E1098
:1048100020D240F6F03CC2F2000C01EB81010CEB1F
:10482000410313F8085C13F8064C13F8042C13F832
:10483000023C1CF8111080F83F5080F8404080F88E
:10484000412080F8423080F84310C17D4A1E1D2A65
:1048500019D808E0002180F84310C0F83F10C17D4E
:104860004A1E1D2A0FD840F20C0EC2F2000E43233E
:1048700002FB03E2807D92F83E30984203D392F827
:104880003F20904200D9B0BD40F6F03CC2F2000C8F
:104890003CF811202CF81100824208BFB0BD4FF641
:1048A00026030022CFF6FF73ACF8002008E000BF1B
:1048B00090F86609888113F5C97302F1060249D0A0
:1048C0000CEB42010EEB03004C8890F81858AC42F8
:1048D00003D390F81958AC4202D990F817484C808D
:1048E0008C8890F85B58AC4203D390F85C58AC428B
:1048F00002D990F85A488C80CC8890F89E58AC42E7
:1049000003D390F89F58AC4202D990F89D48CC80D0
:104910000C8990F8E158AC4203D390F8E258AC42CD
:1049200002D990F8E0480C814C8990F82459AC42A7
:1049300003D390F82559AC4202D990F823494C8111
:104940008C8990F86759AC42B2D390F86859AC4260
:10495000AED8B0E740F6F030C2F20000BDE8B0409B
:1049600001F00AB9FEE7000010B582B040F6E81485
:104970004FF60001C2F200040020C0F6010102223D
:104980002060C4E902120190FCF7A4FE01A92046B0
:10499000FCF7C2FD002818BFFCF736FEFCF73AFE14
:1049A00002B010BDB0B582B04FF6FC7CC0F6010C71
:1049B0000CF102030CF101050CF1030E0A4614047C
:1049C00041D00478FF2C0C4608BF541E83421BD0F4
:1049D000220437D04278FF2A0A4608BF621E854269
:1049E00012D0140434D08478FF2C0C4608BF541E17
:1049F000844509D0220431D0C2780430FF2A0A4607
:104A000008BF621E8645DAD14FF6000440F6E8156D
:104A1000C0F60104C2F20005002002212860C5E9A9
:104A200002410190FCF756FE01A92846FCF774FDEF
:104A3000002818BFFCF7E8FDFCF7ECFD204602B0AB
:104A4000B0BD00BF0130441A204602B0B0BD00BF67
:104A50000230441A204602B0B0BD00BF0330441AF1
:104A6000204602B0B0BD0000A0B0FDF73DFE0A2018
:104A70000F90012010211390CDE914104FF4002065
:104A80000024022518900FA81294CDE910440E942A
:104A9000CDE90C44CDE91654FEF7D6F820B1EFF37A
:104AA000108072B6FEE700BF0F20CDE91A051AA8E4
:104AB0000021CDE91C441E94FDF7BEFF20B1EFF3A9
:104AC000108072B6FEE700BF02200B9000200D9010
:104AD0000BA8FDF72BFF28B1EFF3108072B600BFD3
:104AE000FEE700BF4FF60000C0F601003C214FF684
:104AF000FF74FFF757FF40F6480140F6F038C2F266
:104B00000001C2F200088860404600F0CDFFB8F80E
:104B1000000040F20C05A042C2F2000540F0838084
:104B2000FFF722FF0520FCF7E3FC0020A8F80000B7
:104B300095F83D0095F88010A8F8020095F8490115
:104B4000A8F80410A8F80A0095F88C0195F8CF1180
:104B5000A8F80C0095F81202A8F80E10A8F810009A
:104B600095F8980295F85512A8F8140095F8A40342
:104B7000A8F8121095F8DB12A8F81C0095F82A0482
:104B8000A8F8161095F8E713A8F8200095F8B004D7
:104B9000A8F81E1095F86D14A8F8240095F83605AD
:104BA000A8F8221095F8F314A8F8280095F8420602
:104BB000A8F8261095F87915A8F8300095F885061C
:104BC00095F8C32095F80631A8F82A1095F8C8166C
:104BD000A8F8320095F80B07A8F80620A8F80830C6
:104BE00095F81E2395F86133A8F8341095F84E1700
:104BF000A8F8360095F89107A8F81820A8F81A30F8
:104C000095F8BC2595F8FF35A8F8381095F8D41715
:104C1000A8F83A004046A8F82C20A8F82E30A8F8AA
:104C20003C1000F0A9FF4FF626010120CFF6FF71DE
:104C30006FF00B0208EB02076B18FE8993F8184817
:104C40000C32A64238BF002093F81948A6423E8A8B
:104C500093F85B4888BF0020A64293F85C4838BFB1
:104C60000020A6427E8A93F89E4888BF0020A64274
:104C700093F89F4838BF0020A642BE8A93F8E148C7
:104C800088BF0020A64293F8E24838BF0020A64221
:104C9000FE8A93F8244988BF0020A64293F825494C
:104CA00038BF0020A6423F8B93F8676988BF002079
:104CB00093F86839B74238BF00209F4288BF002070
:104CC00011F5C971B6D100047DD10020A8F800000B
:104CD00095F83D0095F88010A8F8020095F8490174
:104CE000A8F80410A8F80A0095F88C0195F8CF11DF
:104CF000A8F80C0095F81202A8F80E10A8F81000F9
:104D000095F8980295F85512A8F8140095F8A403A0
:104D1000A8F8121095F8DB12A8F81C0095F82A04E0
:104D2000A8F8161095F8E713A8F8200095F8B00435
:104D3000A8F81E1095F86D14A8F8240095F836050B
:104D4000A8F8221095F8F314A8F8280095F8420660
:104D5000A8F8261095F87915A8F8300095F885067A
:104D600095F8C32095F80631A8F82A1095F8C816CA
:104D7000A8F8320095F80B07A8F80620A8F8083024
:104D800095F81E2395F86133A8F8341095F84E175E
:104D9000A8F8360095F89107A8F81820A8F81A3056
:104DA00095F8BC2595F8FF35A8F8381095F8D41774
:104DB000A8F83A004046A8F82C20A8F82E30A8F809
:104DC0003C1000F0D9FE002641F218001296C4F201
:104DD0000200016840F6004B41F0040101600168E7
:104DE000C4F2010B01F004011A911A990168002222
:104DF00041F00801016000684FF4E04100F0080054
:104E00001A901A9858464FF4E044FCF78FFDABF522
:104E1000806A50464FF4606100224FF46069FCF7ED
:104E200085FD4FF48C500FADCDE90F065046294655
:104E30001196FCF767FC48F20700CDE90F065846CB
:104E400029461196FCF75EFC0F9401240227584670
:104E50002946CDE910461297FCF754FC50462946E6
:104E6000CDE90F94CDE91167FCF74CFC40F69017A3
:104E7000C2F200070BF5C051384640F8281F4FF426
:104E8000602106730675C161C0E901660461FBF724
:104E90005DFC28B1EFF3108072B600BFFEE700BFE3
:104EA00007F128000FA9CDF828A0CDE90F641196CD
:104EB000FBF782FB20B1EFF3108072B6FEE700BF74
:104EC000B8F82400002441000028ABF5284008BFB2
:104ED00008214FF4E0224FF4C00387E8130038465E
:104EE000C7E90342C7E90534BC83FCF711F928B1CF
:104EF000EFF3108072B600BFFEE700BF40F64C2013
:104F0000ABF58431C2F20000A0231294CDE9104425
:104F1000CDE91A444FF47A7280E81600C0E90334F0
:104F20008461FEF7C3F828B1EFF3108072B600BFBA
:104F3000FEE700BF4FF480500F9040F64C20C2F2C5
:104F400000000FA9FEF79AF920B1EFF3108072B6B6
:104F5000FEE700BF40F64C20C2F200001AA9FEF79F
:104F600067F828B1EFF3108072B600BFFEE700BF0C
:104F700040F64800ABF55C41C2F2000040F82C1F3F
:104F8000052140F24512C0E90112FDF76DFB28B181
:104F9000EFF3108072B600BFFEE700BF40F6DC20E2
:104FA0000BF53051C2F2000000240C234FF4E13223
:104FB00080E81600C0E90344C0E90534C461FEF787
:104FC000CFFC18B1EFF3108072B6FEE740F6004058
:104FD000C4F20100A0F5823140F69420C2F2000034
:104FE0000A231294CDE91044CDE91A44322280E814
:104FF0001600C0E903348461FEF758F820B1EFF3DE
:10500000108072B6FEE700BF4FF480500F9040F65C
:105010009420C2F200000FA9FEF730F920B1EFF39F
:10502000108072B6FEE700BF40F69420C2F2000086
:105030001AA9FDF7FDFF18B1EFF3108072B6FEE775
:1050400040F60040C4F20100A0F5344140F6F810EB
:10505000C2F2000048F2A06200234FF48047C0F281
:10506000010280E80E00C0E90337C0E90533C0E95A
:105070000733FDF745F818B1EFF3108072B6FEE77D
:1050800043F2000140F64800C4F20201C2F20000FF
:1050900040F8181FFCF79EF920B1EFF3108072B6AC
:1050A000FEE700BF40F62C1040F6BC0BC2F2000039
:1050B0004FF6FF71C2F2000B0123A0F84210A0F8D6
:1050C000401000250146CBF85A304FF40053844677
:1050D00041F8505FABF864304FF480434FF0010E5D
:1050E000456580F85C504CF8585FABF86C305B4617
:1050F00040F64804416181F800E098F802105A46F1
:10510000012703F8405FC2F2000402F8585FCBF8B1
:1051100042704FF400674360B4F864300181BBF81B
:105120000010ABF84C704FF48057426200F14E0211
:10513000ABF854704263438098F8082098F8163012
:1051400098F81870418498F80E1000F15706A0F8EE
:105150005E5080F86050C0E91155C56440F6004AC1
:10516000DDF82890C56145838581C56345878585C0
:10517000057045810376066180F8205080F84EE086
:1051800002854585C0F830C080F83870417680F8D7
:10519000391040F64C20C4F2010AC2F20000ABF80C
:1051A0005E50CBF860A0CBF868A0ABF84650CBF8C7
:1051B0004890CBF850A0C4E9045501960126FEF7AB
:1051C00025F840F69420C2F20000FEF71FF840F6E2
:1051D0004831C2F200014FF44030C1E90205C1E993
:1051E0000805C1E90E050865C1E91A05C1E92005F0
:1051F000C1F898008020A4F860004FF48020C4E932
:105200001950CBE90050CBE904504FF48070ABF853
:105210002C004FF48050ABF83C000120CDE9160083
:105220000E200D82C1E900550D85C1E90655A1F892
:105230004050C1E90C55C1F85650C1E91255A1F8CA
:105240005450A1F87050C1E91855A1F88850C1E92F
:105250001E55C1F89E50C1E92455A1F89C50042167
:10526000189040F69010A4F85A100222ABF81C10C7
:10527000ABF82610ABF83610C2F200000FA9656536
:10528000A4F85850C4F85C90C4F86CA0A4F87060FE
:10529000CBF808A0ABF80C20CBF818A0CBF8205026
:1052A000ABF82450CBF82890CBF83050ABF8345002
:1052B000CBF83890CDE91455CDE90F55CDE911550E
:1052C0001395FBF769FDB8F8240050B140F690152E
:1052D000C2F200052846FBF7FDFF28460221FBF736
:1052E000EFFC40F6480AC2F2000A0AF12C000290D4
:1052F00040F69010C2F2000000F128050020059051
:10530000002006900020089000200490002040F625
:105310002C1640F6483407900020C2F200064FF0E9
:10532000000B4FF00109C2F20004039009950CE054
:10533000AAF802B0FCF700FB0790FCF7FDFA03990E
:10534000401AB0F57A7F00F2AB830298FDF7B8F906
:10535000BAF8660080B140F6BC00C2F20000408896
:1053600010BB40F6BC00C2F20000A0F85A9086F8CC
:1053700056B0A6F83AB017E040F6BC00C2F2000002
:10538000A0F84290408886F854B0A6F81AB058B9F0
:1053900040F6BC00C2F20000A0F85A9086F856B061
:1053A000A6F83AB086F85AB0514641F820BF02201C
:1053B00088602846C1F80490FBF7FEF820B1AB46A0
:1053C0004FF0FF3522E000BF28460027FBF7D2FB55
:1053D00028464FF0FF31FBF799FA18B1AB4600258C
:1053E00005E000BF2846FBF7ADF9AB460546584639
:1053F000FBF726FC0AF120015846CAF82470FBF797
:10540000DBF800284FF0FF3018BF0546A8B2D4E9FA
:1054100000124043401842F10001E289C4E9000152
:10542000501C5146E08141F8209F02208860584678
:10543000C1F80490FBF7C0F830B15F464FF0FF357C
:105440004FF0000B22E000BF5846FBF793FB584695
:105450004FF0FF31FBF75AFA10B15F46002504E028
:105460005846FBF76FF95F4605463846FBF7E8FB01
:105470004FF0000B0AF120013846CAF824B0FBF7C0
:105480009BF800284FF0FF3018BF0546A8B2D4E9BA
:1054900006124043401842F10001E28CC4E90601C3
:1054A000501CE0845146042041F8200F02208860FF
:1054B0003846C1F80490FBF77FF818B14FF0FF357C
:1054C0001FE000BF3846FBF755FB38464FF0FF3171
:1054D000FBF71CFA10B1002504E000BF3846FBF7CB
:1054E00031F905463846FBF7ABFB0AF12001384697
:1054F000CAF824B0FBF760F800284FF0FF3018BF5F
:105500000546A8B2D4E918124043401842F1000100
:10551000B4F86E20C4E91801501CA4F86E0040F6DF
:105520000040C4F201004FF40041FCF7F9F938B132
:10553000BAF8041021B9BAF802100131AAF8021021
:1055400096F85A20AAF80400002A18BF01220A98E7
:105550004FF48061FCF7EAF9FCF7EEF90599099D33
:10556000401A6528C0F0EF80FFF7EEF8B6F84270F9
:10557000B8F83400BAF86410874240F62C10C2F232
:10558000000096F852E0B0F848C0718086F800E05C
:105590004FF00006604638BF0126BCF1000F18BF6F
:1055A0000120B8F8364008F1020230430126A74234
:1055B0003CBF022608F1040240F62C1500281CBF4F
:1055C000032608F10602C2F20005127885F8506041
:1055D00040F62C15C2F200052A8140F62C12C2F2C8
:1055E0000002B2F8465040F62C13C2F2000398F8BD
:1055F00016205D8140F62C13C2F200031A7640F6A5
:10560000BC0940F62C13DDF804B0C2F20009C2F266
:105610000003B9F80020C3F810B040F62C13C2F212
:1056200000035A8440F62C13C2F2000383F820E0F2
:1056300008F10803A74238BF08F10A03002818BF81
:1056400008F10C03187840F62C13C2F2000383F81B
:105650004E6040F62C16C2F20006308506F1580066
:1056600098F818303063B6F8440086F8383008F1FE
:1056700010037585002808BF08F10E03187800296B
:10568000707686F8390018BF0121A6F84A10002A62
:1056900018BF0122BAF85410A6F84C200846002979
:1056A00018BF0120B9F8102086F85B00A8F8280080
:1056B00072B1B8F838004FF0000B01284FF0010923
:1056C00012BFA6F846904FF0010CA6F848C007E0BC
:1056D0004FF0000C4FF0000B4FF00109C6F846C028
:1056E00040F6BC03C2F200031A8C099D1046002A42
:1056F00018BF01201B8E40F64834002B86F85C0052
:10570000A8F82A0018BF012304200029C2F20004CF
:10571000A6F8443086F8600086F852B01CBF86F8C0
:10572000609086F852902AB1082086F86000022026
:1057300086F85200BCF1000F1CBF022086F8600002
:10574000FCF7FAF80590FCF7F7F80699401A972845
:1057500044D340F6F8100AF13802C2F20000CE211C
:105760000E230A270097FCF74BFEB8F8240090B3ED
:1057700040F69010C2F20000FBF786FB58B3B8F871
:1057800026009AF813101A9008201E909AF810001C
:105790009AF814208DF82C00BAF811008DF830100A
:1057A000ADF82D0098F8120098F814108DF831001B
:1057B00040F690108DF82F208DF83210C2F20000C4
:1057C0001AA90BAA19AB8DF87CB0CDE91CBBCDF89A
:1057D00064B0FBF78DFAFCF7AFF80690FCF7ACF875
:1057E0000899401A062802D3FCF7A6F80890FCF79F
:1057F000A3F80499401AB0F5967F40F22881E28917
:105800007AB1D4E900010023FAF7FEFC00F038FC7D
:1058100000F0EFFA00F0EEFB2081A4F80EB0C4E92E
:1058200000BBE28C7AB1D4E906010023FAF7ECFC64
:1058300000F026FC00F0DDFA00F0DCFB2084A4F888
:1058400026B0C4E906BBB4F86E2082B1D4E91801D1
:105850000023FAF7D9FC00F013FC00F0CAFA00F0BC
:10586000C9FBA4F86800A4F86EB0C4E918BB20898D
:10587000B8F82C10B8F82E30B0FBF1F2208CB8F844
:105880002010B0FBF3F001EB8103B2EB430FA8F85B
:105890001220A8F814000ED369B140F6BC01C2F280
:1058A0000001A1F842B086F85A9086F85490AAF800
:1058B0006690A6F81A90B8F8221001EB8102520007
:1058C00082420ED869B140F6BC00C2F20000A0F8D6
:1058D0005AB086F85A9086F85690A0F80290A6F82A
:1058E0003A90B4F868004FF23532A0F54D6189B2B4
:1058F000914203D24FF6FF707E3870E0C40900B2C7
:1059000000F0A7FB07460D464BF6C7204FF20601F5
:1059100044F2746A45F606794AF2D73B40F60A1615
:10592000042CC8F6B850C3F65671CFF2946ACBF681
:10593000F979C3F6705BC4F280063A462B4684BF01
:105940004BF28D30C4F26D1084BF4FF28421CBF640
:10595000DD6184BF4FF2946AC5F6067A84BF44F6CF
:105960009849CBF6857988BF4FF0000B042C84BF93
:1059700042F20006C4F2530600F0C8FB044604914C
:10598000504649463A462B4600F0C0FB8A460499E9
:10599000814620463A462B46099D00F0B7FB4A4611
:1059A000534640F6480A4FF00109C2F2000A00F0DF
:1059B00079FA02460B46584640F64834314640F6DE
:1059C0002C164FF0000BC2F20004C2F2000600F0E9
:1059D00069FA00F035FA00F0D3F900F0CBFEB8F820
:1059E0001E10A6F8400001292ED1B8F81C10B6F8F8
:1059F0005E2000B288424FF00003A8BF0123A6F842
:105A00005E307AB188420DDA40F6BC02C2F2000282
:105A100086F85AB0A2F85A90A2F84290A6F81AB0A6
:105A2000A6F83AB088420FDB40F6BC00C2F2000094
:105A300086F85A90A0F85AB0A0F842B0A6F857B02D
:105A4000A6F81A90A6F83A90FBF776FF0490FBF7B9
:105A500073FF0799401AB0F5FA7F7FF66EAC40F6F7
:105A6000F8100AF14602C2F20000CE210E23FCF724
:105A700009FC9AF84700BAF848108AF81500B8F8F7
:105A80003000AAF8161000283FF452ACBAF8021001
:105A900001EB81018900B1FBF0F0A6F8420047E478
:105AA000FBF74AFF039050E440F65001C2F20001B8
:105AB00009684FF60002C0F60102914208BF704724
:105AC00031F83C2C028031F83A2C428031F8382CE5
:105AD000828031F8362CC28031F8342C028131F8C2
